{
  "contractName": "Comment",
  "abi": [
    {
      "anonymous": false,
      "inputs": [
        {
          "indexed": true,
          "internalType": "address",
          "name": "previousOwner",
          "type": "address"
        },
        {
          "indexed": true,
          "internalType": "address",
          "name": "newOwner",
          "type": "address"
        }
      ],
      "name": "OwnershipTransferred",
      "type": "event"
    },
    {
      "inputs": [],
      "name": "owner",
      "outputs": [
        {
          "internalType": "address",
          "name": "",
          "type": "address"
        }
      ],
      "stateMutability": "view",
      "type": "function"
    },
    {
      "inputs": [],
      "name": "renounceOwnership",
      "outputs": [],
      "stateMutability": "nonpayable",
      "type": "function"
    },
    {
      "inputs": [
        {
          "internalType": "address",
          "name": "newOwner",
          "type": "address"
        }
      ],
      "name": "transferOwnership",
      "outputs": [],
      "stateMutability": "nonpayable",
      "type": "function"
    },
    {
      "inputs": [],
      "name": "initialize",
      "outputs": [],
      "stateMutability": "nonpayable",
      "type": "function"
    },
    {
      "inputs": [
        {
          "internalType": "bytes32",
          "name": "contentArIdKey",
          "type": "bytes32"
        },
        {
          "internalType": "bytes32",
          "name": "commentArIdKey",
          "type": "bytes32"
        }
      ],
      "name": "submitCommentId",
      "outputs": [],
      "stateMutability": "nonpayable",
      "type": "function"
    },
    {
      "inputs": [
        {
          "internalType": "string",
          "name": "contentArId",
          "type": "string"
        },
        {
          "internalType": "string",
          "name": "startCommentId",
          "type": "string"
        },
        {
          "internalType": "uint256",
          "name": "amount",
          "type": "uint256"
        },
        {
          "internalType": "bool",
          "name": "reverse",
          "type": "bool"
        }
      ],
      "name": "getCommentIdArray",
      "outputs": [
        {
          "internalType": "bytes32[]",
          "name": "",
          "type": "bytes32[]"
        }
      ],
      "stateMutability": "view",
      "type": "function"
    },
    {
      "inputs": [
        {
          "internalType": "string",
          "name": "contentArId",
          "type": "string"
        }
      ],
      "name": "getCommentAmountByArId",
      "outputs": [
        {
          "internalType": "uint256",
          "name": "",
          "type": "uint256"
        }
      ],
      "stateMutability": "view",
      "type": "function"
    }
  ],
  "bytecode": "0x608060405234801561001057600080fd5b50611995806100206000396000f3fe608060405234801561001057600080fd5b506004361061007d5760003560e01c80638129fc1c1161005b5780638129fc1c146100d85780638da5cb5b146100e25780639236489114610100578063f2fde38b146101305761007d565b80630d40220914610082578063715018a61461009e57806380602996146100a8575b600080fd5b61009c60048036038101906100979190610eeb565b61014c565b005b6100a661015a565b005b6100c260048036038101906100bd9190610ffe565b6101e2565b6040516100cf9190611163565b60405180910390f35b6100e061020e565b005b6100ea6102fa565b6040516100f791906111c6565b60405180910390f35b61011a600480360381019061011591906111e1565b610324565b604051610127919061123d565b60405180910390f35b61014a60048036038101906101459190611284565b610340565b005b6101568282610437565b5050565b61016261045b565b73ffffffffffffffffffffffffffffffffffffffff166101806102fa565b73ffffffffffffffffffffffffffffffffffffffff16146101d6576040517f08c379a00000000000000000000000000000000000000000000000000000000081526004016101cd9061130e565b60405180910390fd5b6101e06000610463565b565b60606102026101f18888610529565b6101fb878761055c565b858561058c565b90509695505050505050565b600060019054906101000a900460ff166102365760008054906101000a900460ff161561023f565b61023e61079c565b5b61027e576040517f08c379a0000000000000000000000000000000000000000000000000000000008152600401610275906113a0565b60405180910390fd5b60008060019054906101000a900460ff1615905080156102ce576001600060016101000a81548160ff02191690831515021790555060016000806101000a81548160ff0219169083151502179055505b6102d66107ad565b80156102f75760008060016101000a81548160ff0219169083151502179055505b50565b6000604060009054906101000a900473ffffffffffffffffffffffffffffffffffffffff16905090565b60006103386103338484610529565b610806565b905092915050565b61034861045b565b73ffffffffffffffffffffffffffffffffffffffff166103666102fa565b73ffffffffffffffffffffffffffffffffffffffff16146103bc576040517f08c379a00000000000000000000000000000000000000000000000000000000081526004016103b39061130e565b60405180910390fd5b600073ffffffffffffffffffffffffffffffffffffffff168173ffffffffffffffffffffffffffffffffffffffff160361042b576040517f08c379a000000000000000000000000000000000000000000000000000000000815260040161042290611432565b60405180910390fd5b61043481610463565b50565b600060405180602001604052806000815250905061045683838361084c565b505050565b600033905090565b6000604060009054906101000a900473ffffffffffffffffffffffffffffffffffffffff16905081604060006101000a81548173ffffffffffffffffffffffffffffffffffffffff021916908373ffffffffffffffffffffffffffffffffffffffff1602179055508173ffffffffffffffffffffffffffffffffffffffff168173ffffffffffffffffffffffffffffffffffffffff167f8be0079c531659141344cd1fd0a4f28419497f9722a3daafe3b4186f6b6457e060405160405180910390a35050565b6000828260405160200161053e929190611491565b60405160208183030381529060405280519060200120905092915050565b60008060008484905003610575576000801b9050610582565b61057f8484610529565b90505b8091505092915050565b60606000600160006105be7f434841494e5f414d4f554e543a0000000000000000000000000000000000000089610981565b8152602001908152602001600020540361062357600067ffffffffffffffff8111156105ed576105ec6114aa565b5b60405190808252806020026020018201604052801561061b5781602001602082028036833780820191505090505b509050610794565b600061062e866109b4565b9050600061063f8260a00151610a08565b905060006106508360800151610a08565b905060008667ffffffffffffffff81111561066e5761066d6114aa565b5b60405190808252806020026020018201604052801561069c5781602001602082028036833780820191505090505b50905060008060001b89036106e75786156106b9578298506106bd565b8398505b88826000815181106106d2576106d16114d9565b5b602002602001018181525050600190506106ec565b600090505b5b8781101561077457861561072057838903156107745761071961071486600001518b610981565b610a08565b9850610741565b828903156107745761073e61073986602001518b610981565b610a08565b98505b88828281518110610755576107546114d9565b5b602002602001018181525050808061076c90611537565b9150506106ed565b60008189610782919061157f565b90508083510383528296505050505050505b949350505050565b60006107a730610a25565b15905090565b600060019054906101000a900460ff166107fc576040517f08c379a00000000000000000000000000000000000000000000000000000000081526004016107f390611625565b60405180910390fd5b610804610a48565b565b6000600160006108367f434841494e5f414d4f554e543a0000000000000000000000000000000000000085610981565b8152602001908152602001600020549050919050565b600061085784610aa9565b9050826108678260800151610a08565b1415801561088c57506000801b61088a610885836000015186610981565b610a08565b145b6108cb576040517f08c379a00000000000000000000000000000000000000000000000000000000081526004016108c290611691565b60405180910390fd5b60006108da8260800151610a08565b90506000801b81036108f9576108f48260a0015185610cbf565b610928565b61091061090a836020015183610981565b85610cbf565b610927610921836000015186610981565b82610cbf565b5b610936826080015185610cbf565b61094d610947836040015186610981565b84610cdb565b600160008360c001518152602001908152602001600020600081548092919061097590611537565b91905055505050505050565b600082826040516020016109969291906116d2565b60405160208183030381529060405280519060200120905092915050565b6109bc610dac565b6109ee6109e97f434841494e5f53414c545f4d41524b3a0000000000000000000000000000000084610981565b610d07565b806020019051810190610a019190611829565b9050919050565b600060076000838152602001908152602001600020549050919050565b6000808273ffffffffffffffffffffffffffffffffffffffff163b119050919050565b600060019054906101000a900460ff16610a97576040517f08c379a0000000000000000000000000000000000000000000000000000000008152600401610a8e90611625565b60405180910390fd5b610aa7610aa261045b565b610463565b565b610ab1610dac565b6000610ae5610ae07f434841494e5f53414c545f4d41524b3a0000000000000000000000000000000085610981565b610d07565b90506000815103610ca25760006040518060e00160405280610b277f434841494e5f505245563a00000000000000000000000000000000000000000087610981565b8152602001610b567f434841494e5f4e4558543a00000000000000000000000000000000000000000087610981565b8152602001610b857f434841494e5f444154413a00000000000000000000000000000000000000000087610981565b8152602001610bb47f434841494e5f53434f52453a000000000000000000000000000000000000000087610981565b8152602001610be37f434841494e5f4c4153543a00000000000000000000000000000000000000000087610981565b8152602001610c127f434841494e5f46495253543a000000000000000000000000000000000000000087610981565b8152602001610c417f434841494e5f414d4f554e543a0000000000000000000000000000000000000087610981565b8152509050610c98610c737f434841494e5f53414c545f4d41524b3a0000000000000000000000000000000086610981565b82604051602001610c8491906118e4565b604051602081830303815290604052610cdb565b8092505050610cba565b80806020019051810190610cb69190611829565b9150505b919050565b8060076000848152602001908152602001600020819055505050565b80600460008481526020019081526020016000209080519060200190610d02929190610dfe565b505050565b6060600460008381526020019081526020016000208054610d279061192e565b80601f0160208091040260200160405190810160405280929190818152602001828054610d539061192e565b8015610da05780601f10610d7557610100808354040283529160200191610da0565b820191906000526020600020905b815481529060010190602001808311610d8357829003601f168201915b50505050509050919050565b6040518060e00160405280600080191681526020016000801916815260200160008019168152602001600080191681526020016000801916815260200160008019168152602001600080191681525090565b828054610e0a9061192e565b90600052602060002090601f016020900481019282610e2c5760008555610e73565b82601f10610e4557805160ff1916838001178555610e73565b82800160010185558215610e73579182015b82811115610e72578251825591602001919060010190610e57565b5b509050610e809190610e84565b5090565b5b80821115610e9d576000816000905550600101610e85565b5090565b6000604051905090565b600080fd5b600080fd5b6000819050919050565b610ec881610eb5565b8114610ed357600080fd5b50565b600081359050610ee581610ebf565b92915050565b60008060408385031215610f0257610f01610eab565b5b6000610f1085828601610ed6565b9250506020610f2185828601610ed6565b9150509250929050565b600080fd5b600080fd5b600080fd5b60008083601f840112610f5057610f4f610f2b565b5b8235905067ffffffffffffffff811115610f6d57610f6c610f30565b5b602083019150836001820283011115610f8957610f88610f35565b5b9250929050565b6000819050919050565b610fa381610f90565b8114610fae57600080fd5b50565b600081359050610fc081610f9a565b92915050565b60008115159050919050565b610fdb81610fc6565b8114610fe657600080fd5b50565b600081359050610ff881610fd2565b92915050565b6000806000806000806080878903121561101b5761101a610eab565b5b600087013567ffffffffffffffff81111561103957611038610eb0565b5b61104589828a01610f3a565b9650965050602087013567ffffffffffffffff81111561106857611067610eb0565b5b61107489828a01610f3a565b9450945050604061108789828a01610fb1565b925050606061109889828a01610fe9565b9150509295509295509295565b600081519050919050565b600082825260208201905092915050565b6000819050602082019050919050565b6110da81610eb5565b82525050565b60006110ec83836110d1565b60208301905092915050565b6000602082019050919050565b6000611110826110a5565b61111a81856110b0565b9350611125836110c1565b8060005b8381101561115657815161113d88826110e0565b9750611148836110f8565b925050600181019050611129565b5085935050505092915050565b6000602082019050818103600083015261117d8184611105565b905092915050565b600073ffffffffffffffffffffffffffffffffffffffff82169050919050565b60006111b082611185565b9050919050565b6111c0816111a5565b82525050565b60006020820190506111db60008301846111b7565b92915050565b600080602083850312156111f8576111f7610eab565b5b600083013567ffffffffffffffff81111561121657611215610eb0565b5b61122285828601610f3a565b92509250509250929050565b61123781610f90565b82525050565b6000602082019050611252600083018461122e565b92915050565b611261816111a5565b811461126c57600080fd5b50565b60008135905061127e81611258565b92915050565b60006020828403121561129a57611299610eab565b5b60006112a88482850161126f565b91505092915050565b600082825260208201905092915050565b7f4f776e61626c653a2063616c6c6572206973206e6f7420746865206f776e6572600082015250565b60006112f86020836112b1565b9150611303826112c2565b602082019050919050565b60006020820190508181036000830152611327816112eb565b9050919050565b7f496e697469616c697a61626c653a20636f6e747261637420697320616c72656160008201527f647920696e697469616c697a6564000000000000000000000000000000000000602082015250565b600061138a602e836112b1565b91506113958261132e565b604082019050919050565b600060208201905081810360008301526113b98161137d565b9050919050565b7f4f776e61626c653a206e6577206f776e657220697320746865207a65726f206160008201527f6464726573730000000000000000000000000000000000000000000000000000602082015250565b600061141c6026836112b1565b9150611427826113c0565b604082019050919050565b6000602082019050818103600083015261144b8161140f565b9050919050565b600081905092915050565b82818337600083830152505050565b60006114788385611452565b935061148583858461145d565b82840190509392505050565b600061149e82848661146c565b91508190509392505050565b7f4e487b7100000000000000000000000000000000000000000000000000000000600052604160045260246000fd5b7f4e487b7100000000000000000000000000000000000000000000000000000000600052603260045260246000fd5b7f4e487b7100000000000000000000000000000000000000000000000000000000600052601160045260246000fd5b600061154282610f90565b91507fffffffffffffffffffffffffffffffffffffffffffffffffffffffffffffffff820361157457611573611508565b5b600182019050919050565b600061158a82610f90565b915061159583610f90565b9250828210156115a8576115a7611508565b5b828203905092915050565b7f496e697469616c697a61626c653a20636f6e7472616374206973206e6f74206960008201527f6e697469616c697a696e67000000000000000000000000000000000000000000602082015250565b600061160f602b836112b1565b915061161a826115b3565b604082019050919050565b6000602082019050818103600083015261163e81611602565b9050919050565b7f6f6e6c7920616c6c6f77207375626d6974206f6e636500000000000000000000600082015250565b600061167b6016836112b1565b915061168682611645565b602082019050919050565b600060208201905081810360008301526116aa8161166e565b9050919050565b6000819050919050565b6116cc6116c782610eb5565b6116b1565b82525050565b60006116de82856116bb565b6020820191506116ee82846116bb565b6020820191508190509392505050565b600080fd5b6000601f19601f8301169050919050565b61171d82611703565b810181811067ffffffffffffffff8211171561173c5761173b6114aa565b5b80604052505050565b600061174f610ea1565b905061175b8282611714565b919050565b60008151905061176f81610ebf565b92915050565b600060e0828403121561178b5761178a6116fe565b5b61179560e0611745565b905060006117a584828501611760565b60008301525060206117b984828501611760565b60208301525060406117cd84828501611760565b60408301525060606117e184828501611760565b60608301525060806117f584828501611760565b60808301525060a061180984828501611760565b60a08301525060c061181d84828501611760565b60c08301525092915050565b600060e0828403121561183f5761183e610eab565b5b600061184d84828501611775565b91505092915050565b60e08201600082015161186c60008501826110d1565b50602082015161187f60208501826110d1565b50604082015161189260408501826110d1565b5060608201516118a560608501826110d1565b5060808201516118b860808501826110d1565b5060a08201516118cb60a08501826110d1565b5060c08201516118de60c08501826110d1565b50505050565b600060e0820190506118f96000830184611856565b92915050565b7f4e487b7100000000000000000000000000000000000000000000000000000000600052602260045260246000fd5b6000600282049050600182168061194657607f821691505b602082108103611959576119586118ff565b5b5091905056fea264697066735822122075954e50ebb49d0f88ceb32709c892461b5838c8d5f680279498bc9e84cdd81964736f6c634300080d0033",
  "immutableReferences": {},
  "source": "// SPDX-License-Identifier: MIT\r\npragma solidity ^0.8.10;\r\n\r\nimport \"@openzeppelin/contracts-upgradeable/proxy/utils/Initializable.sol\";\r\nimport \"@openzeppelin/contracts-upgradeable/access/OwnableUpgradeable.sol\";\r\n\r\nimport \"../storages/EternalStorage.sol\";\r\nimport \"../storages/ChainStorage.sol\";\r\nimport \"../libraries/Encoder.sol\";\r\n\r\ncontract Comment is\r\n    Initializable,\r\n    EternalStorage,\r\n    ChainStorage,\r\n    OwnableUpgradeable\r\n{\r\n    function initialize() public initializer {\r\n        __Ownable_init();\r\n    }\r\n\r\n    function submitCommentId(bytes32 contentArIdKey, bytes32 commentArIdKey)\r\n        external\r\n    {\r\n        submitChainDataWithSalt(contentArIdKey, commentArIdKey);\r\n    }\r\n\r\n    function getCommentIdArray(\r\n        string calldata contentArId,\r\n        string calldata startCommentId,\r\n        uint256 amount,\r\n        bool reverse\r\n    ) external view returns (bytes32[] memory) {\r\n        return\r\n            getChainKeyArrayWithSalt(\r\n                Encoder.getKey(contentArId),\r\n                Encoder.stringToKey(startCommentId),\r\n                amount,\r\n                reverse\r\n            );\r\n    }\r\n\r\n    function getCommentAmountByArId(string calldata contentArId)\r\n        external\r\n        view\r\n        returns (uint256)\r\n    {\r\n        return getChainAmountWithSalt(Encoder.getKey(contentArId));\r\n    }\r\n}\r\n",
  "sourcePath": "C:\\project\\web3\\totee\\contracts\\modules\\Comment.sol",
  "compiler": {
    "name": "solc",
    "version": "0.8.13+commit.abaa5c0e.Emscripten.clang"
  },
  "schemaVersion": "3.4.6",
  "updatedAt": "2022-04-26T03:49:56.395Z",
  "devdoc": {
    "kind": "dev",
    "methods": {
      "owner()": {
        "details": "Returns the address of the current owner."
      },
      "renounceOwnership()": {
        "details": "Leaves the contract without owner. It will not be possible to call `onlyOwner` functions anymore. Can only be called by the current owner. NOTE: Renouncing ownership will leave the contract without an owner, thereby removing any functionality that is only available to the owner."
      },
      "transferOwnership(address)": {
        "details": "Transfers ownership of the contract to a new account (`newOwner`). Can only be called by the current owner."
      }
    },
    "version": 1
  },
  "userdoc": {
    "kind": "user",
    "methods": {},
    "version": 1
  }
}