{
  "contractName": "ContentV2Retot",
  "abi": [
    {
      "anonymous": false,
      "inputs": [
        {
          "indexed": true,
          "internalType": "address",
          "name": "previousOwner",
          "type": "address"
        },
        {
          "indexed": true,
          "internalType": "address",
          "name": "newOwner",
          "type": "address"
        }
      ],
      "name": "OwnershipTransferred",
      "type": "event"
    },
    {
      "inputs": [],
      "name": "owner",
      "outputs": [
        {
          "internalType": "address",
          "name": "",
          "type": "address"
        }
      ],
      "stateMutability": "view",
      "type": "function"
    },
    {
      "inputs": [],
      "name": "renounceOwnership",
      "outputs": [],
      "stateMutability": "nonpayable",
      "type": "function"
    },
    {
      "inputs": [
        {
          "internalType": "address",
          "name": "newOwner",
          "type": "address"
        }
      ],
      "name": "transferOwnership",
      "outputs": [],
      "stateMutability": "nonpayable",
      "type": "function"
    },
    {
      "inputs": [],
      "name": "initialize",
      "outputs": [],
      "stateMutability": "nonpayable",
      "type": "function"
    },
    {
      "inputs": [
        {
          "internalType": "address",
          "name": "authorAccount",
          "type": "address"
        },
        {
          "internalType": "string",
          "name": "replyToArId",
          "type": "string"
        },
        {
          "internalType": "string",
          "name": "arId",
          "type": "string"
        },
        {
          "internalType": "string",
          "name": "content",
          "type": "string"
        },
        {
          "internalType": "bool",
          "name": "completed",
          "type": "bool"
        }
      ],
      "name": "publishContent",
      "outputs": [
        {
          "internalType": "bytes32",
          "name": "",
          "type": "bytes32"
        }
      ],
      "stateMutability": "nonpayable",
      "type": "function"
    },
    {
      "inputs": [
        {
          "internalType": "bytes32[]",
          "name": "arIdKeys",
          "type": "bytes32[]"
        }
      ],
      "name": "getContentsByArIdKeyArray",
      "outputs": [
        {
          "components": [
            {
              "internalType": "string",
              "name": "replyToArId",
              "type": "string"
            },
            {
              "internalType": "string",
              "name": "arId",
              "type": "string"
            },
            {
              "internalType": "address",
              "name": "authorAccount",
              "type": "address"
            },
            {
              "internalType": "string",
              "name": "content",
              "type": "string"
            },
            {
              "internalType": "bool",
              "name": "completed",
              "type": "bool"
            },
            {
              "internalType": "uint256",
              "name": "publishTime",
              "type": "uint256"
            }
          ],
          "internalType": "struct ReturnContent[]",
          "name": "",
          "type": "tuple[]"
        }
      ],
      "stateMutability": "view",
      "type": "function"
    },
    {
      "inputs": [
        {
          "internalType": "bytes32",
          "name": "arIdKey",
          "type": "bytes32"
        }
      ],
      "name": "isExist",
      "outputs": [
        {
          "internalType": "bool",
          "name": "",
          "type": "bool"
        }
      ],
      "stateMutability": "view",
      "type": "function"
    },
    {
      "inputs": [
        {
          "internalType": "bytes32",
          "name": "arIdKey",
          "type": "bytes32"
        }
      ],
      "name": "increaseRetotAmount",
      "outputs": [],
      "stateMutability": "nonpayable",
      "type": "function"
    },
    {
      "inputs": [
        {
          "internalType": "string",
          "name": "arId",
          "type": "string"
        }
      ],
      "name": "getRetotAmountByArId",
      "outputs": [
        {
          "internalType": "uint256",
          "name": "",
          "type": "uint256"
        }
      ],
      "stateMutability": "view",
      "type": "function"
    }
  ],
  "bytecode": "0x608060405234801561001057600080fd5b50611d0a806100206000396000f3fe608060405234801561001057600080fd5b50600436106100935760003560e01c80638129fc1c116100665780638129fc1c146101325780638a522f0b1461013c5780638da5cb5b14610158578063f2175bd114610176578063f2fde38b146101a657610093565b80632aea7a3d14610098578063715018a6146100c8578063762fee18146100d2578063797af37d14610102575b600080fd5b6100b260048036038101906100ad9190610d90565b6101c2565b6040516100bf9190610df6565b60405180910390f35b6100d06101e9565b005b6100ec60048036038101906100e79190610e47565b610271565b6040516100f99190610e8f565b60405180910390f35b61011c60048036038101906101179190610f34565b6102af565b604051610129919061101f565b60405180910390f35b61013a6104ed565b005b61015660048036038101906101519190610e47565b6105d9565b005b610160610681565b60405161016d9190611049565b60405180910390f35b610190600480360381019061018b91906110ba565b6106ab565b60405161019d9190611326565b60405180910390f35b6101c060048036038101906101bb9190611348565b61083c565b005b6000600160006101d28585610933565b815260200190815260200160002054905092915050565b6101f1610966565b73ffffffffffffffffffffffffffffffffffffffff1661020f610681565b73ffffffffffffffffffffffffffffffffffffffff1614610265576040517f08c379a000000000000000000000000000000000000000000000000000000000815260040161025c906113d2565b60405180910390fd5b61026f600061096e565b565b6000806102a66102a17f434f4e54454e54533a000000000000000000000000000000000000000000000085610a34565b610a67565b51119050919050565b60006102b9610966565b73ffffffffffffffffffffffffffffffffffffffff166102d7610681565b73ffffffffffffffffffffffffffffffffffffffff161461032d576040517f08c379a0000000000000000000000000000000000000000000000000000000008152600401610324906113d2565b60405180910390fd5b60006103398787610933565b905060006040518060c001604052808b8b8080601f016020809104026020016040519081016040528093929190818152602001838380828437600081840152601f19601f8201169050808301925050505050505081526020018c73ffffffffffffffffffffffffffffffffffffffff16815260200189898080601f016020809104026020016040519081016040528093929190818152602001838380828437600081840152601f19601f82011690508083019250505050505050815260200187878080601f016020809104026020016040519081016040528093929190818152602001838380828437600081840152601f19601f82011690508083019250505050505050815260200185151581526020014281525090506000604051806040016040528060018152602001836040516020016104759190611489565b60405160208183030381529060405281525090506104db6104b67f434f4e54454e54533a000000000000000000000000000000000000000000000085610a34565b826040516020016104c7919061153d565b604051602081830303815290604052610b0c565b82935050505098975050505050505050565b600060019054906101000a900460ff166105155760008054906101000a900460ff161561051e565b61051d610b38565b5b61055d576040517f08c379a0000000000000000000000000000000000000000000000000000000008152600401610554906115d1565b60405180910390fd5b60008060019054906101000a900460ff1615905080156105ad576001600060016101000a81548160ff02191690831515021790555060016000806101000a81548160ff0219169083151502179055505b6105b5610b49565b80156105d65760008060016101000a81548160ff0219169083151502179055505b50565b6105e1610966565b73ffffffffffffffffffffffffffffffffffffffff166105ff610681565b73ffffffffffffffffffffffffffffffffffffffff1614610655576040517f08c379a000000000000000000000000000000000000000000000000000000000815260040161064c906113d2565b60405180910390fd5b60016000828152602001908152602001600020600081548092919061067990611620565b919050555050565b6000604060009054906101000a900473ffffffffffffffffffffffffffffffffffffffff16905090565b606060008383905067ffffffffffffffff8111156106cc576106cb611668565b5b60405190808252806020026020018201604052801561070557816020015b6106f2610c26565b8152602001906001900390816106ea5790505b50905060005b8484905081101561083157600061076361075e7f434f4e54454e54533a000000000000000000000000000000000000000000000088888681811061075257610751611697565b5b90506020020135610a34565b610a67565b806020019051810190610776919061185a565b9050600181600001510361081d576000816020015180602001905181019061079e9190611a62565b90506040518060c001604052808260000151815260200182604001518152602001826020015173ffffffffffffffffffffffffffffffffffffffff168152602001826060015181526020018260800151151581526020018260a001518152508484815181106108105761080f611697565b5b6020026020010181905250505b50808061082990611620565b91505061070b565b508091505092915050565b610844610966565b73ffffffffffffffffffffffffffffffffffffffff16610862610681565b73ffffffffffffffffffffffffffffffffffffffff16146108b8576040517f08c379a00000000000000000000000000000000000000000000000000000000081526004016108af906113d2565b60405180910390fd5b600073ffffffffffffffffffffffffffffffffffffffff168173ffffffffffffffffffffffffffffffffffffffff1603610927576040517f08c379a000000000000000000000000000000000000000000000000000000000815260040161091e90611b1d565b60405180910390fd5b6109308161096e565b50565b60008282604051602001610948929190611b7c565b60405160208183030381529060405280519060200120905092915050565b600033905090565b6000604060009054906101000a900473ffffffffffffffffffffffffffffffffffffffff16905081604060006101000a81548173ffffffffffffffffffffffffffffffffffffffff021916908373ffffffffffffffffffffffffffffffffffffffff1602179055508173ffffffffffffffffffffffffffffffffffffffff168173ffffffffffffffffffffffffffffffffffffffff167f8be0079c531659141344cd1fd0a4f28419497f9722a3daafe3b4186f6b6457e060405160405180910390a35050565b60008282604051602001610a49929190611bb6565b60405160208183030381529060405280519060200120905092915050565b6060600460008381526020019081526020016000208054610a8790611c11565b80601f0160208091040260200160405190810160405280929190818152602001828054610ab390611c11565b8015610b005780601f10610ad557610100808354040283529160200191610b00565b820191906000526020600020905b815481529060010190602001808311610ae357829003601f168201915b50505050509050919050565b80600460008481526020019081526020016000209080519060200190610b33929190610c74565b505050565b6000610b4330610ba2565b15905090565b600060019054906101000a900460ff16610b98576040517f08c379a0000000000000000000000000000000000000000000000000000000008152600401610b8f90611cb4565b60405180910390fd5b610ba0610bc5565b565b6000808273ffffffffffffffffffffffffffffffffffffffff163b119050919050565b600060019054906101000a900460ff16610c14576040517f08c379a0000000000000000000000000000000000000000000000000000000008152600401610c0b90611cb4565b60405180910390fd5b610c24610c1f610966565b61096e565b565b6040518060c001604052806060815260200160608152602001600073ffffffffffffffffffffffffffffffffffffffff16815260200160608152602001600015158152602001600081525090565b828054610c8090611c11565b90600052602060002090601f016020900481019282610ca25760008555610ce9565b82601f10610cbb57805160ff1916838001178555610ce9565b82800160010185558215610ce9579182015b82811115610ce8578251825591602001919060010190610ccd565b5b509050610cf69190610cfa565b5090565b5b80821115610d13576000816000905550600101610cfb565b5090565b6000604051905090565b600080fd5b600080fd5b600080fd5b600080fd5b600080fd5b60008083601f840112610d5057610d4f610d2b565b5b8235905067ffffffffffffffff811115610d6d57610d6c610d30565b5b602083019150836001820283011115610d8957610d88610d35565b5b9250929050565b60008060208385031215610da757610da6610d21565b5b600083013567ffffffffffffffff811115610dc557610dc4610d26565b5b610dd185828601610d3a565b92509250509250929050565b6000819050919050565b610df081610ddd565b82525050565b6000602082019050610e0b6000830184610de7565b92915050565b6000819050919050565b610e2481610e11565b8114610e2f57600080fd5b50565b600081359050610e4181610e1b565b92915050565b600060208284031215610e5d57610e5c610d21565b5b6000610e6b84828501610e32565b91505092915050565b60008115159050919050565b610e8981610e74565b82525050565b6000602082019050610ea46000830184610e80565b92915050565b600073ffffffffffffffffffffffffffffffffffffffff82169050919050565b6000610ed582610eaa565b9050919050565b610ee581610eca565b8114610ef057600080fd5b50565b600081359050610f0281610edc565b92915050565b610f1181610e74565b8114610f1c57600080fd5b50565b600081359050610f2e81610f08565b92915050565b60008060008060008060008060a0898b031215610f5457610f53610d21565b5b6000610f628b828c01610ef3565b985050602089013567ffffffffffffffff811115610f8357610f82610d26565b5b610f8f8b828c01610d3a565b9750975050604089013567ffffffffffffffff811115610fb257610fb1610d26565b5b610fbe8b828c01610d3a565b9550955050606089013567ffffffffffffffff811115610fe157610fe0610d26565b5b610fed8b828c01610d3a565b935093505060806110008b828c01610f1f565b9150509295985092959890939650565b61101981610e11565b82525050565b60006020820190506110346000830184611010565b92915050565b61104381610eca565b82525050565b600060208201905061105e600083018461103a565b92915050565b60008083601f84011261107a57611079610d2b565b5b8235905067ffffffffffffffff81111561109757611096610d30565b5b6020830191508360208202830111156110b3576110b2610d35565b5b9250929050565b600080602083850312156110d1576110d0610d21565b5b600083013567ffffffffffffffff8111156110ef576110ee610d26565b5b6110fb85828601611064565b92509250509250929050565b600081519050919050565b600082825260208201905092915050565b6000819050602082019050919050565b600081519050919050565b600082825260208201905092915050565b60005b8381101561116d578082015181840152602081019050611152565b8381111561117c576000848401525b50505050565b6000601f19601f8301169050919050565b600061119e82611133565b6111a8818561113e565b93506111b881856020860161114f565b6111c181611182565b840191505092915050565b6111d581610eca565b82525050565b6111e481610e74565b82525050565b6111f381610ddd565b82525050565b600060c08301600083015184820360008601526112168282611193565b915050602083015184820360208601526112308282611193565b915050604083015161124560408601826111cc565b506060830151848203606086015261125d8282611193565b915050608083015161127260808601826111db565b5060a083015161128560a08601826111ea565b508091505092915050565b600061129c83836111f9565b905092915050565b6000602082019050919050565b60006112bc82611107565b6112c68185611112565b9350836020820285016112d885611123565b8060005b8581101561131457848403895281516112f58582611290565b9450611300836112a4565b925060208a019950506001810190506112dc565b50829750879550505050505092915050565b6000602082019050818103600083015261134081846112b1565b905092915050565b60006020828403121561135e5761135d610d21565b5b600061136c84828501610ef3565b91505092915050565b600082825260208201905092915050565b7f4f776e61626c653a2063616c6c6572206973206e6f7420746865206f776e6572600082015250565b60006113bc602083611375565b91506113c782611386565b602082019050919050565b600060208201905081810360008301526113eb816113af565b9050919050565b600060c083016000830151848203600086015261140f8282611193565b915050602083015161142460208601826111cc565b506040830151848203604086015261143c8282611193565b915050606083015184820360608601526114568282611193565b915050608083015161146b60808601826111db565b5060a083015161147e60a08601826111ea565b508091505092915050565b600060208201905081810360008301526114a381846113f2565b905092915050565b600081519050919050565b600082825260208201905092915050565b60006114d2826114ab565b6114dc81856114b6565b93506114ec81856020860161114f565b6114f581611182565b840191505092915050565b600060408301600083015161151860008601826111ea565b506020830151848203602086015261153082826114c7565b9150508091505092915050565b600060208201905081810360008301526115578184611500565b905092915050565b7f496e697469616c697a61626c653a20636f6e747261637420697320616c72656160008201527f647920696e697469616c697a6564000000000000000000000000000000000000602082015250565b60006115bb602e83611375565b91506115c68261155f565b604082019050919050565b600060208201905081810360008301526115ea816115ae565b9050919050565b7f4e487b7100000000000000000000000000000000000000000000000000000000600052601160045260246000fd5b600061162b82610ddd565b91507fffffffffffffffffffffffffffffffffffffffffffffffffffffffffffffffff820361165d5761165c6115f1565b5b600182019050919050565b7f4e487b7100000000000000000000000000000000000000000000000000000000600052604160045260246000fd5b7f4e487b7100000000000000000000000000000000000000000000000000000000600052603260045260246000fd5b600080fd5b6116d482611182565b810181811067ffffffffffffffff821117156116f3576116f2611668565b5b80604052505050565b6000611706610d17565b905061171282826116cb565b919050565b600080fd5b61172581610ddd565b811461173057600080fd5b50565b6000815190506117428161171c565b92915050565b600080fd5b600067ffffffffffffffff82111561176857611767611668565b5b61177182611182565b9050602081019050919050565b600061179161178c8461174d565b6116fc565b9050828152602081018484840111156117ad576117ac611748565b5b6117b884828561114f565b509392505050565b600082601f8301126117d5576117d4610d2b565b5b81516117e584826020860161177e565b91505092915050565b600060408284031215611804576118036116c6565b5b61180e60406116fc565b9050600061181e84828501611733565b600083015250602082015167ffffffffffffffff81111561184257611841611717565b5b61184e848285016117c0565b60208301525092915050565b6000602082840312156118705761186f610d21565b5b600082015167ffffffffffffffff81111561188e5761188d610d26565b5b61189a848285016117ee565b91505092915050565b600067ffffffffffffffff8211156118be576118bd611668565b5b6118c782611182565b9050602081019050919050565b60006118e76118e2846118a3565b6116fc565b90508281526020810184848401111561190357611902611748565b5b61190e84828561114f565b509392505050565b600082601f83011261192b5761192a610d2b565b5b815161193b8482602086016118d4565b91505092915050565b60008151905061195381610edc565b92915050565b60008151905061196881610f08565b92915050565b600060c08284031215611984576119836116c6565b5b61198e60c06116fc565b9050600082015167ffffffffffffffff8111156119ae576119ad611717565b5b6119ba84828501611916565b60008301525060206119ce84828501611944565b602083015250604082015167ffffffffffffffff8111156119f2576119f1611717565b5b6119fe84828501611916565b604083015250606082015167ffffffffffffffff811115611a2257611a21611717565b5b611a2e84828501611916565b6060830152506080611a4284828501611959565b60808301525060a0611a5684828501611733565b60a08301525092915050565b600060208284031215611a7857611a77610d21565b5b600082015167ffffffffffffffff811115611a9657611a95610d26565b5b611aa28482850161196e565b91505092915050565b7f4f776e61626c653a206e6577206f776e657220697320746865207a65726f206160008201527f6464726573730000000000000000000000000000000000000000000000000000602082015250565b6000611b07602683611375565b9150611b1282611aab565b604082019050919050565b60006020820190508181036000830152611b3681611afa565b9050919050565b600081905092915050565b82818337600083830152505050565b6000611b638385611b3d565b9350611b70838584611b48565b82840190509392505050565b6000611b89828486611b57565b91508190509392505050565b6000819050919050565b611bb0611bab82610e11565b611b95565b82525050565b6000611bc28285611b9f565b602082019150611bd28284611b9f565b6020820191508190509392505050565b7f4e487b7100000000000000000000000000000000000000000000000000000000600052602260045260246000fd5b60006002820490506001821680611c2957607f821691505b602082108103611c3c57611c3b611be2565b5b50919050565b7f496e697469616c697a61626c653a20636f6e7472616374206973206e6f74206960008201527f6e697469616c697a696e67000000000000000000000000000000000000000000602082015250565b6000611c9e602b83611375565b9150611ca982611c42565b604082019050919050565b60006020820190508181036000830152611ccd81611c91565b905091905056fea2646970667358221220d088c5a84a2bc75dcb6b6fadad54fbd3f3685b50f746bc2bc569e86560693b3c64736f6c634300080d0033",
  "immutableReferences": {},
  "source": "// SPDX-License-Identifier: MIT\r\npragma solidity ^0.8.10;\r\n\r\nimport \"@openzeppelin/contracts-upgradeable/proxy/utils/Initializable.sol\";\r\nimport \"@openzeppelin/contracts-upgradeable/access/OwnableUpgradeable.sol\";\r\n\r\nimport \"../storages/EternalStorage.sol\";\r\nimport \"../storages/ChainStorage.sol\";\r\nimport \"../libraries/Encoder.sol\";\r\n\r\nstruct ContentV1 {\r\n    string replyToArId;\r\n    address authorAccount;\r\n    string arId;\r\n    string content;\r\n    bool completed;\r\n    uint256 publishTime;\r\n}\r\n\r\nstruct ReturnContent {\r\n    string replyToArId;\r\n    string arId;\r\n    address authorAccount;\r\n    string content;\r\n    bool completed;\r\n    uint256 publishTime;\r\n}\r\n\r\ncontract ContentV2Retot is\r\n    Initializable,\r\n    EternalStorage,\r\n    ChainStorage,\r\n    OwnableUpgradeable\r\n{\r\n    bytes32 constant CONTENTS = \"CONTENTS:\";\r\n    bytes32 constant RETOT_AMOUNT = \"RETOT_AMOUNT:\";\r\n\r\n    function initialize() public initializer {\r\n        __Ownable_init();\r\n    }\r\n\r\n    function publishContent(\r\n        address authorAccount,\r\n        string calldata replyToArId,\r\n        string calldata arId,\r\n        string calldata content,\r\n        bool completed\r\n    ) external onlyOwner returns (bytes32) {\r\n        bytes32 arIdKey = Encoder.getKey(arId);\r\n        ContentV1 memory ct = ContentV1({\r\n            replyToArId: replyToArId,\r\n            authorAccount: authorAccount,\r\n            arId: arId,\r\n            content: content,\r\n            completed: completed,\r\n            publishTime: block.timestamp\r\n        });\r\n        VersionBox memory vb = VersionBox({version: 1, data: abi.encode(ct)});\r\n        set(Encoder.getKey(CONTENTS, arIdKey), abi.encode(vb));\r\n        return arIdKey;\r\n    }\r\n\r\n    function getContentsByArIdKeyArray(bytes32[] calldata arIdKeys)\r\n        external\r\n        view\r\n        returns (ReturnContent[] memory)\r\n    {\r\n        ReturnContent[] memory results = new ReturnContent[](arIdKeys.length);\r\n\r\n        for (uint256 i = 0; i < arIdKeys.length; i++) {\r\n            VersionBox memory vb = abi.decode(\r\n                getBytesValue(Encoder.getKey(CONTENTS, arIdKeys[i])),\r\n                (VersionBox)\r\n            );\r\n            if (vb.version == 1) {\r\n                ContentV1 memory ct = abi.decode(vb.data, (ContentV1));\r\n\r\n                results[i] = ReturnContent({\r\n                    replyToArId: ct.replyToArId,\r\n                    arId: ct.arId,\r\n                    authorAccount: ct.authorAccount,\r\n                    content: ct.content,\r\n                    completed: ct.completed,\r\n                    publishTime: ct.publishTime\r\n                });\r\n            }\r\n        }\r\n\r\n        return results;\r\n    }\r\n\r\n    function isExist(bytes32 arIdKey) external view returns (bool) {\r\n        return getBytesValue(Encoder.getKey(CONTENTS, arIdKey)).length > 0;\r\n    }\r\n\r\n    function increaseRetotAmount(bytes32 arIdKey) external onlyOwner {\r\n        uint256Storage[arIdKey]++;\r\n    }\r\n\r\n    function getRetotAmountByArId(string calldata arId)\r\n        external\r\n        view\r\n        returns (uint256)\r\n    {\r\n        return uint256Storage[Encoder.getKey(arId)];\r\n    }\r\n}\r\n",
  "sourcePath": "C:\\project\\web3\\totee\\contracts\\modules\\ContentV2Retot.sol",
  "compiler": {
    "name": "solc",
    "version": "0.8.13+commit.abaa5c0e.Emscripten.clang"
  },
  "schemaVersion": "3.4.6",
  "updatedAt": "2022-04-26T03:49:56.435Z",
  "devdoc": {
    "kind": "dev",
    "methods": {
      "owner()": {
        "details": "Returns the address of the current owner."
      },
      "renounceOwnership()": {
        "details": "Leaves the contract without owner. It will not be possible to call `onlyOwner` functions anymore. Can only be called by the current owner. NOTE: Renouncing ownership will leave the contract without an owner, thereby removing any functionality that is only available to the owner."
      },
      "transferOwnership(address)": {
        "details": "Transfers ownership of the contract to a new account (`newOwner`). Can only be called by the current owner."
      }
    },
    "version": 1
  },
  "userdoc": {
    "kind": "user",
    "methods": {},
    "version": 1
  }
}