{
  "contractName": "Content",
  "abi": [
    {
      "anonymous": false,
      "inputs": [
        {
          "indexed": true,
          "internalType": "address",
          "name": "previousOwner",
          "type": "address"
        },
        {
          "indexed": true,
          "internalType": "address",
          "name": "newOwner",
          "type": "address"
        }
      ],
      "name": "OwnershipTransferred",
      "type": "event"
    },
    {
      "inputs": [],
      "name": "owner",
      "outputs": [
        {
          "internalType": "address",
          "name": "",
          "type": "address"
        }
      ],
      "stateMutability": "view",
      "type": "function"
    },
    {
      "inputs": [],
      "name": "renounceOwnership",
      "outputs": [],
      "stateMutability": "nonpayable",
      "type": "function"
    },
    {
      "inputs": [
        {
          "internalType": "address",
          "name": "newOwner",
          "type": "address"
        }
      ],
      "name": "transferOwnership",
      "outputs": [],
      "stateMutability": "nonpayable",
      "type": "function"
    },
    {
      "inputs": [],
      "name": "initialize",
      "outputs": [],
      "stateMutability": "nonpayable",
      "type": "function"
    },
    {
      "inputs": [
        {
          "internalType": "address",
          "name": "authorAccount",
          "type": "address"
        },
        {
          "internalType": "string",
          "name": "replyToArId",
          "type": "string"
        },
        {
          "internalType": "string",
          "name": "arId",
          "type": "string"
        },
        {
          "internalType": "string",
          "name": "content",
          "type": "string"
        },
        {
          "internalType": "bool",
          "name": "completed",
          "type": "bool"
        }
      ],
      "name": "publishContent",
      "outputs": [
        {
          "internalType": "bytes32",
          "name": "",
          "type": "bytes32"
        }
      ],
      "stateMutability": "nonpayable",
      "type": "function"
    },
    {
      "inputs": [
        {
          "internalType": "bytes32[]",
          "name": "arIdKeys",
          "type": "bytes32[]"
        }
      ],
      "name": "getContentsByArIdKeyArray",
      "outputs": [
        {
          "components": [
            {
              "internalType": "string",
              "name": "replyToArId",
              "type": "string"
            },
            {
              "internalType": "string",
              "name": "arId",
              "type": "string"
            },
            {
              "internalType": "address",
              "name": "authorAccount",
              "type": "address"
            },
            {
              "internalType": "string",
              "name": "content",
              "type": "string"
            },
            {
              "internalType": "bool",
              "name": "completed",
              "type": "bool"
            },
            {
              "internalType": "uint256",
              "name": "publishTime",
              "type": "uint256"
            }
          ],
          "internalType": "struct ReturnContent[]",
          "name": "",
          "type": "tuple[]"
        }
      ],
      "stateMutability": "view",
      "type": "function"
    }
  ],
  "bytecode": "0x608060405234801561001057600080fd5b50611a56806100206000396000f3fe608060405234801561001057600080fd5b50600436106100625760003560e01c8063715018a614610067578063797af37d146100715780638129fc1c146100a15780638da5cb5b146100ab578063f2175bd1146100c9578063f2fde38b146100f9575b600080fd5b61006f610115565b005b61008b60048036038101906100869190610c6c565b61019d565b6040516100989190610d61565b60405180910390f35b6100a96103db565b005b6100b36104c7565b6040516100c09190610d8b565b60405180910390f35b6100e360048036038101906100de9190610dfc565b6104f1565b6040516100f09190611072565b60405180910390f35b610113600480360381019061010e9190611094565b610682565b005b61011d610779565b73ffffffffffffffffffffffffffffffffffffffff1661013b6104c7565b73ffffffffffffffffffffffffffffffffffffffff1614610191576040517f08c379a00000000000000000000000000000000000000000000000000000000081526004016101889061111e565b60405180910390fd5b61019b6000610781565b565b60006101a7610779565b73ffffffffffffffffffffffffffffffffffffffff166101c56104c7565b73ffffffffffffffffffffffffffffffffffffffff161461021b576040517f08c379a00000000000000000000000000000000000000000000000000000000081526004016102129061111e565b60405180910390fd5b60006102278787610847565b905060006040518060c001604052808b8b8080601f016020809104026020016040519081016040528093929190818152602001838380828437600081840152601f19601f8201169050808301925050505050505081526020018c73ffffffffffffffffffffffffffffffffffffffff16815260200189898080601f016020809104026020016040519081016040528093929190818152602001838380828437600081840152601f19601f82011690508083019250505050505050815260200187878080601f016020809104026020016040519081016040528093929190818152602001838380828437600081840152601f19601f820116905080830192505050505050508152602001851515815260200142815250905060006040518060400160405280600181526020018360405160200161036391906111d5565b60405160208183030381529060405281525090506103c96103a47f434f4e54454e54533a00000000000000000000000000000000000000000000008561087a565b826040516020016103b59190611289565b6040516020818303038152906040526108ad565b82935050505098975050505050505050565b600060019054906101000a900460ff166104035760008054906101000a900460ff161561040c565b61040b6108d9565b5b61044b576040517f08c379a00000000000000000000000000000000000000000000000000000000081526004016104429061131d565b60405180910390fd5b60008060019054906101000a900460ff16159050801561049b576001600060016101000a81548160ff02191690831515021790555060016000806101000a81548160ff0219169083151502179055505b6104a36108ea565b80156104c45760008060016101000a81548160ff0219169083151502179055505b50565b6000604060009054906101000a900473ffffffffffffffffffffffffffffffffffffffff16905090565b606060008383905067ffffffffffffffff8111156105125761051161133d565b5b60405190808252806020026020018201604052801561054b57816020015b610538610a6c565b8152602001906001900390816105305790505b50905060005b848490508110156106775760006105a96105a47f434f4e54454e54533a00000000000000000000000000000000000000000000008888868181106105985761059761136c565b5b9050602002013561087a565b610943565b8060200190518101906105bc919061152f565b9050600181600001510361066357600081602001518060200190518101906105e49190611737565b90506040518060c001604052808260000151815260200182604001518152602001826020015173ffffffffffffffffffffffffffffffffffffffff168152602001826060015181526020018260800151151581526020018260a001518152508484815181106106565761065561136c565b5b6020026020010181905250505b50808061066f906117af565b915050610551565b508091505092915050565b61068a610779565b73ffffffffffffffffffffffffffffffffffffffff166106a86104c7565b73ffffffffffffffffffffffffffffffffffffffff16146106fe576040517f08c379a00000000000000000000000000000000000000000000000000000000081526004016106f59061111e565b60405180910390fd5b600073ffffffffffffffffffffffffffffffffffffffff168173ffffffffffffffffffffffffffffffffffffffff160361076d576040517f08c379a000000000000000000000000000000000000000000000000000000000815260040161076490611869565b60405180910390fd5b61077681610781565b50565b600033905090565b6000604060009054906101000a900473ffffffffffffffffffffffffffffffffffffffff16905081604060006101000a81548173ffffffffffffffffffffffffffffffffffffffff021916908373ffffffffffffffffffffffffffffffffffffffff1602179055508173ffffffffffffffffffffffffffffffffffffffff168173ffffffffffffffffffffffffffffffffffffffff167f8be0079c531659141344cd1fd0a4f28419497f9722a3daafe3b4186f6b6457e060405160405180910390a35050565b6000828260405160200161085c9291906118c8565b60405160208183030381529060405280519060200120905092915050565b6000828260405160200161088f929190611902565b60405160208183030381529060405280519060200120905092915050565b806004600084815260200190815260200160002090805190602001906108d4929190610aba565b505050565b60006108e4306109e8565b15905090565b600060019054906101000a900460ff16610939576040517f08c379a0000000000000000000000000000000000000000000000000000000008152600401610930906119a0565b60405180910390fd5b610941610a0b565b565b6060600460008381526020019081526020016000208054610963906119ef565b80601f016020809104026020016040519081016040528092919081815260200182805461098f906119ef565b80156109dc5780601f106109b1576101008083540402835291602001916109dc565b820191906000526020600020905b8154815290600101906020018083116109bf57829003601f168201915b50505050509050919050565b6000808273ffffffffffffffffffffffffffffffffffffffff163b119050919050565b600060019054906101000a900460ff16610a5a576040517f08c379a0000000000000000000000000000000000000000000000000000000008152600401610a51906119a0565b60405180910390fd5b610a6a610a65610779565b610781565b565b6040518060c001604052806060815260200160608152602001600073ffffffffffffffffffffffffffffffffffffffff16815260200160608152602001600015158152602001600081525090565b828054610ac6906119ef565b90600052602060002090601f016020900481019282610ae85760008555610b2f565b82601f10610b0157805160ff1916838001178555610b2f565b82800160010185558215610b2f579182015b82811115610b2e578251825591602001919060010190610b13565b5b509050610b3c9190610b40565b5090565b5b80821115610b59576000816000905550600101610b41565b5090565b6000604051905090565b600080fd5b600080fd5b600073ffffffffffffffffffffffffffffffffffffffff82169050919050565b6000610b9c82610b71565b9050919050565b610bac81610b91565b8114610bb757600080fd5b50565b600081359050610bc981610ba3565b92915050565b600080fd5b600080fd5b600080fd5b60008083601f840112610bf457610bf3610bcf565b5b8235905067ffffffffffffffff811115610c1157610c10610bd4565b5b602083019150836001820283011115610c2d57610c2c610bd9565b5b9250929050565b60008115159050919050565b610c4981610c34565b8114610c5457600080fd5b50565b600081359050610c6681610c40565b92915050565b60008060008060008060008060a0898b031215610c8c57610c8b610b67565b5b6000610c9a8b828c01610bba565b985050602089013567ffffffffffffffff811115610cbb57610cba610b6c565b5b610cc78b828c01610bde565b9750975050604089013567ffffffffffffffff811115610cea57610ce9610b6c565b5b610cf68b828c01610bde565b9550955050606089013567ffffffffffffffff811115610d1957610d18610b6c565b5b610d258b828c01610bde565b93509350506080610d388b828c01610c57565b9150509295985092959890939650565b6000819050919050565b610d5b81610d48565b82525050565b6000602082019050610d766000830184610d52565b92915050565b610d8581610b91565b82525050565b6000602082019050610da06000830184610d7c565b92915050565b60008083601f840112610dbc57610dbb610bcf565b5b8235905067ffffffffffffffff811115610dd957610dd8610bd4565b5b602083019150836020820283011115610df557610df4610bd9565b5b9250929050565b60008060208385031215610e1357610e12610b67565b5b600083013567ffffffffffffffff811115610e3157610e30610b6c565b5b610e3d85828601610da6565b92509250509250929050565b600081519050919050565b600082825260208201905092915050565b6000819050602082019050919050565b600081519050919050565b600082825260208201905092915050565b60005b83811015610eaf578082015181840152602081019050610e94565b83811115610ebe576000848401525b50505050565b6000601f19601f8301169050919050565b6000610ee082610e75565b610eea8185610e80565b9350610efa818560208601610e91565b610f0381610ec4565b840191505092915050565b610f1781610b91565b82525050565b610f2681610c34565b82525050565b6000819050919050565b610f3f81610f2c565b82525050565b600060c0830160008301518482036000860152610f628282610ed5565b91505060208301518482036020860152610f7c8282610ed5565b9150506040830151610f916040860182610f0e565b5060608301518482036060860152610fa98282610ed5565b9150506080830151610fbe6080860182610f1d565b5060a0830151610fd160a0860182610f36565b508091505092915050565b6000610fe88383610f45565b905092915050565b6000602082019050919050565b600061100882610e49565b6110128185610e54565b93508360208202850161102485610e65565b8060005b8581101561106057848403895281516110418582610fdc565b945061104c83610ff0565b925060208a01995050600181019050611028565b50829750879550505050505092915050565b6000602082019050818103600083015261108c8184610ffd565b905092915050565b6000602082840312156110aa576110a9610b67565b5b60006110b884828501610bba565b91505092915050565b600082825260208201905092915050565b7f4f776e61626c653a2063616c6c6572206973206e6f7420746865206f776e6572600082015250565b60006111086020836110c1565b9150611113826110d2565b602082019050919050565b60006020820190508181036000830152611137816110fb565b9050919050565b600060c083016000830151848203600086015261115b8282610ed5565b91505060208301516111706020860182610f0e565b50604083015184820360408601526111888282610ed5565b915050606083015184820360608601526111a28282610ed5565b91505060808301516111b76080860182610f1d565b5060a08301516111ca60a0860182610f36565b508091505092915050565b600060208201905081810360008301526111ef818461113e565b905092915050565b600081519050919050565b600082825260208201905092915050565b600061121e826111f7565b6112288185611202565b9350611238818560208601610e91565b61124181610ec4565b840191505092915050565b60006040830160008301516112646000860182610f36565b506020830151848203602086015261127c8282611213565b9150508091505092915050565b600060208201905081810360008301526112a3818461124c565b905092915050565b7f496e697469616c697a61626c653a20636f6e747261637420697320616c72656160008201527f647920696e697469616c697a6564000000000000000000000000000000000000602082015250565b6000611307602e836110c1565b9150611312826112ab565b604082019050919050565b60006020820190508181036000830152611336816112fa565b9050919050565b7f4e487b7100000000000000000000000000000000000000000000000000000000600052604160045260246000fd5b7f4e487b7100000000000000000000000000000000000000000000000000000000600052603260045260246000fd5b600080fd5b6113a982610ec4565b810181811067ffffffffffffffff821117156113c8576113c761133d565b5b80604052505050565b60006113db610b5d565b90506113e782826113a0565b919050565b600080fd5b6113fa81610f2c565b811461140557600080fd5b50565b600081519050611417816113f1565b92915050565b600080fd5b600067ffffffffffffffff82111561143d5761143c61133d565b5b61144682610ec4565b9050602081019050919050565b600061146661146184611422565b6113d1565b9050828152602081018484840111156114825761148161141d565b5b61148d848285610e91565b509392505050565b600082601f8301126114aa576114a9610bcf565b5b81516114ba848260208601611453565b91505092915050565b6000604082840312156114d9576114d861139b565b5b6114e360406113d1565b905060006114f384828501611408565b600083015250602082015167ffffffffffffffff811115611517576115166113ec565b5b61152384828501611495565b60208301525092915050565b60006020828403121561154557611544610b67565b5b600082015167ffffffffffffffff81111561156357611562610b6c565b5b61156f848285016114c3565b91505092915050565b600067ffffffffffffffff8211156115935761159261133d565b5b61159c82610ec4565b9050602081019050919050565b60006115bc6115b784611578565b6113d1565b9050828152602081018484840111156115d8576115d761141d565b5b6115e3848285610e91565b509392505050565b600082601f830112611600576115ff610bcf565b5b81516116108482602086016115a9565b91505092915050565b60008151905061162881610ba3565b92915050565b60008151905061163d81610c40565b92915050565b600060c082840312156116595761165861139b565b5b61166360c06113d1565b9050600082015167ffffffffffffffff811115611683576116826113ec565b5b61168f848285016115eb565b60008301525060206116a384828501611619565b602083015250604082015167ffffffffffffffff8111156116c7576116c66113ec565b5b6116d3848285016115eb565b604083015250606082015167ffffffffffffffff8111156116f7576116f66113ec565b5b611703848285016115eb565b60608301525060806117178482850161162e565b60808301525060a061172b84828501611408565b60a08301525092915050565b60006020828403121561174d5761174c610b67565b5b600082015167ffffffffffffffff81111561176b5761176a610b6c565b5b61177784828501611643565b91505092915050565b7f4e487b7100000000000000000000000000000000000000000000000000000000600052601160045260246000fd5b60006117ba82610f2c565b91507fffffffffffffffffffffffffffffffffffffffffffffffffffffffffffffffff82036117ec576117eb611780565b5b600182019050919050565b7f4f776e61626c653a206e6577206f776e657220697320746865207a65726f206160008201527f6464726573730000000000000000000000000000000000000000000000000000602082015250565b60006118536026836110c1565b915061185e826117f7565b604082019050919050565b6000602082019050818103600083015261188281611846565b9050919050565b600081905092915050565b82818337600083830152505050565b60006118af8385611889565b93506118bc838584611894565b82840190509392505050565b60006118d58284866118a3565b91508190509392505050565b6000819050919050565b6118fc6118f782610d48565b6118e1565b82525050565b600061190e82856118eb565b60208201915061191e82846118eb565b6020820191508190509392505050565b7f496e697469616c697a61626c653a20636f6e7472616374206973206e6f74206960008201527f6e697469616c697a696e67000000000000000000000000000000000000000000602082015250565b600061198a602b836110c1565b91506119958261192e565b604082019050919050565b600060208201905081810360008301526119b98161197d565b9050919050565b7f4e487b7100000000000000000000000000000000000000000000000000000000600052602260045260246000fd5b60006002820490506001821680611a0757607f821691505b602082108103611a1a57611a196119c0565b5b5091905056fea2646970667358221220c59c1b0ee65c0008d3fdd05b48d56b787abafe8c43f7b13335d1fb5987a980b964736f6c634300080d0033",
  "immutableReferences": {},
  "source": "// SPDX-License-Identifier: MIT\r\npragma solidity ^0.8.10;\r\n\r\nimport \"@openzeppelin/contracts-upgradeable/proxy/utils/Initializable.sol\";\r\nimport \"@openzeppelin/contracts-upgradeable/access/OwnableUpgradeable.sol\";\r\n\r\nimport \"../storages/EternalStorage.sol\";\r\nimport \"../storages/ChainStorage.sol\";\r\nimport \"../libraries/Encoder.sol\";\r\n\r\nstruct ContentV1 {\r\n    string replyToArId;\r\n    address authorAccount;\r\n    string arId;\r\n    string content;\r\n    bool completed;\r\n    uint256 publishTime;\r\n}\r\n\r\nstruct ReturnContent {\r\n    string replyToArId;\r\n    string arId;\r\n    address authorAccount;\r\n    string content;\r\n    bool completed;\r\n    uint256 publishTime;\r\n}\r\n\r\ncontract Content is\r\n    Initializable,\r\n    EternalStorage,\r\n    ChainStorage,\r\n    OwnableUpgradeable\r\n{\r\n    bytes32 constant CONTENTS = \"CONTENTS:\";\r\n\r\n    function initialize() public initializer {\r\n        __Ownable_init();\r\n    }\r\n\r\n    function publishContent(\r\n        address authorAccount,\r\n        string calldata replyToArId,\r\n        string calldata arId,\r\n        string calldata content,\r\n        bool completed\r\n    ) external onlyOwner returns (bytes32) {\r\n        bytes32 arIdKey = Encoder.getKey(arId);\r\n        ContentV1 memory ct = ContentV1({\r\n            replyToArId: replyToArId,\r\n            authorAccount: authorAccount,\r\n            arId: arId,\r\n            content: content,\r\n            completed: completed,\r\n            publishTime: block.timestamp\r\n        });\r\n        VersionBox memory vb = VersionBox({version: 1, data: abi.encode(ct)});\r\n        set(Encoder.getKey(CONTENTS, arIdKey), abi.encode(vb));\r\n        return arIdKey;\r\n    }\r\n\r\n    function getContentsByArIdKeyArray(bytes32[] calldata arIdKeys)\r\n        external\r\n        view\r\n        returns (ReturnContent[] memory)\r\n    {\r\n        ReturnContent[] memory results = new ReturnContent[](arIdKeys.length);\r\n\r\n        for (uint256 i = 0; i < arIdKeys.length; i++) {\r\n            VersionBox memory vb = abi.decode(\r\n                getBytesValue(Encoder.getKey(CONTENTS, arIdKeys[i])),\r\n                (VersionBox)\r\n            );\r\n            if (vb.version == 1) {\r\n                ContentV1 memory ct = abi.decode(vb.data, (ContentV1));\r\n\r\n                results[i] = ReturnContent({\r\n                    replyToArId: ct.replyToArId,\r\n                    arId: ct.arId,\r\n                    authorAccount: ct.authorAccount,\r\n                    content: ct.content,\r\n                    completed: ct.completed,\r\n                    publishTime: ct.publishTime\r\n                });\r\n            }\r\n        }\r\n\r\n        return results;\r\n    }\r\n}\r\n",
  "sourcePath": "C:\\project\\web3\\totee\\contracts\\modules\\Content.sol",
  "compiler": {
    "name": "solc",
    "version": "0.8.13+commit.abaa5c0e.Emscripten.clang"
  },
  "schemaVersion": "3.4.6",
  "updatedAt": "2022-04-26T03:49:56.409Z",
  "devdoc": {
    "kind": "dev",
    "methods": {
      "owner()": {
        "details": "Returns the address of the current owner."
      },
      "renounceOwnership()": {
        "details": "Leaves the contract without owner. It will not be possible to call `onlyOwner` functions anymore. Can only be called by the current owner. NOTE: Renouncing ownership will leave the contract without an owner, thereby removing any functionality that is only available to the owner."
      },
      "transferOwnership(address)": {
        "details": "Transfers ownership of the contract to a new account (`newOwner`). Can only be called by the current owner."
      }
    },
    "version": 1
  },
  "userdoc": {
    "kind": "user",
    "methods": {},
    "version": 1
  }
}