{
  "contractName": "Explore",
  "abi": [
    {
      "anonymous": false,
      "inputs": [
        {
          "indexed": true,
          "internalType": "address",
          "name": "previousOwner",
          "type": "address"
        },
        {
          "indexed": true,
          "internalType": "address",
          "name": "newOwner",
          "type": "address"
        }
      ],
      "name": "OwnershipTransferred",
      "type": "event"
    },
    {
      "inputs": [],
      "name": "owner",
      "outputs": [
        {
          "internalType": "address",
          "name": "",
          "type": "address"
        }
      ],
      "stateMutability": "view",
      "type": "function"
    },
    {
      "inputs": [],
      "name": "renounceOwnership",
      "outputs": [],
      "stateMutability": "nonpayable",
      "type": "function"
    },
    {
      "inputs": [
        {
          "internalType": "address",
          "name": "newOwner",
          "type": "address"
        }
      ],
      "name": "transferOwnership",
      "outputs": [],
      "stateMutability": "nonpayable",
      "type": "function"
    },
    {
      "inputs": [],
      "name": "initialize",
      "outputs": [],
      "stateMutability": "nonpayable",
      "type": "function"
    },
    {
      "inputs": [
        {
          "internalType": "bytes32",
          "name": "arIdKey",
          "type": "bytes32"
        }
      ],
      "name": "submitContentArIdKey",
      "outputs": [],
      "stateMutability": "nonpayable",
      "type": "function"
    },
    {
      "inputs": [
        {
          "internalType": "string",
          "name": "startArId",
          "type": "string"
        },
        {
          "internalType": "uint256",
          "name": "amount",
          "type": "uint256"
        },
        {
          "internalType": "bool",
          "name": "reverse",
          "type": "bool"
        }
      ],
      "name": "getExploreArIdKeyArray",
      "outputs": [
        {
          "internalType": "bytes32[]",
          "name": "",
          "type": "bytes32[]"
        }
      ],
      "stateMutability": "view",
      "type": "function"
    }
  ],
  "bytecode": "0x608060405234801561001057600080fd5b506118c3806100206000396000f3fe608060405234801561001057600080fd5b50600436106100625760003560e01c806313a15cff14610067578063224f1a2714610097578063715018a6146100b35780638129fc1c146100bd5780638da5cb5b146100c7578063f2fde38b146100e5575b600080fd5b610081600480360381019061007c9190610f73565b610101565b60405161008e91906110af565b60405180910390f35b6100b160048036038101906100ac91906110fd565b610121565b005b6100bb6101a9565b005b6100c5610231565b005b6100cf61031d565b6040516100dc919061116b565b60405180910390f35b6100ff60048036038101906100fa91906111b2565b610347565b005b6060610117610110868661043e565b848461046e565b9050949350505050565b610129610488565b73ffffffffffffffffffffffffffffffffffffffff1661014761031d565b73ffffffffffffffffffffffffffffffffffffffff161461019d576040517f08c379a00000000000000000000000000000000000000000000000000000000081526004016101949061123c565b60405180910390fd5b6101a681610490565b50565b6101b1610488565b73ffffffffffffffffffffffffffffffffffffffff166101cf61031d565b73ffffffffffffffffffffffffffffffffffffffff1614610225576040517f08c379a000000000000000000000000000000000000000000000000000000000815260040161021c9061123c565b60405180910390fd5b61022f60006104b2565b565b600060019054906101000a900460ff166102595760008054906101000a900460ff1615610262565b610261610578565b5b6102a1576040517f08c379a0000000000000000000000000000000000000000000000000000000008152600401610298906112ce565b60405180910390fd5b60008060019054906101000a900460ff1615905080156102f1576001600060016101000a81548160ff02191690831515021790555060016000806101000a81548160ff0219169083151502179055505b6102f9610589565b801561031a5760008060016101000a81548160ff0219169083151502179055505b50565b6000604060009054906101000a900473ffffffffffffffffffffffffffffffffffffffff16905090565b61034f610488565b73ffffffffffffffffffffffffffffffffffffffff1661036d61031d565b73ffffffffffffffffffffffffffffffffffffffff16146103c3576040517f08c379a00000000000000000000000000000000000000000000000000000000081526004016103ba9061123c565b60405180910390fd5b600073ffffffffffffffffffffffffffffffffffffffff168173ffffffffffffffffffffffffffffffffffffffff1603610432576040517f08c379a000000000000000000000000000000000000000000000000000000000815260040161042990611360565b60405180910390fd5b61043b816104b2565b50565b60008060008484905003610457576000801b9050610464565b61046184846105e2565b90505b8091505092915050565b606061047f6000801b858585610615565b90509392505050565b600033905090565b60006040518060200160405280600081525090506104ae8282610825565b5050565b6000604060009054906101000a900473ffffffffffffffffffffffffffffffffffffffff16905081604060006101000a81548173ffffffffffffffffffffffffffffffffffffffff021916908373ffffffffffffffffffffffffffffffffffffffff1602179055508173ffffffffffffffffffffffffffffffffffffffff168173ffffffffffffffffffffffffffffffffffffffff167f8be0079c531659141344cd1fd0a4f28419497f9722a3daafe3b4186f6b6457e060405160405180910390a35050565b600061058330610837565b15905090565b600060019054906101000a900460ff166105d8576040517f08c379a00000000000000000000000000000000000000000000000000000000081526004016105cf906113f2565b60405180910390fd5b6105e061085a565b565b600082826040516020016105f7929190611451565b60405160208183030381529060405280519060200120905092915050565b60606000600160006106477f434841494e5f414d4f554e543a00000000000000000000000000000000000000896108bb565b815260200190815260200160002054036106ac57600067ffffffffffffffff8111156106765761067561146a565b5b6040519080825280602002602001820160405280156106a45781602001602082028036833780820191505090505b50905061081d565b60006106b7866108ee565b905060006106c88260a00151610942565b905060006106d98360800151610942565b905060008667ffffffffffffffff8111156106f7576106f661146a565b5b6040519080825280602002602001820160405280156107255781602001602082028036833780820191505090505b50905060008060001b890361077057861561074257829850610746565b8398505b888260008151811061075b5761075a611499565b5b60200260200101818152505060019050610775565b600090505b5b878110156107fd5786156107a957838903156107fd576107a261079d86600001518b6108bb565b610942565b98506107ca565b828903156107fd576107c76107c286602001518b6108bb565b610942565b98505b888282815181106107de576107dd611499565b5b60200260200101818152505080806107f5906114f7565b915050610776565b6000818961080b919061153f565b90508083510383528296505050505050505b949350505050565b6108336000801b838361095f565b5050565b6000808273ffffffffffffffffffffffffffffffffffffffff163b119050919050565b600060019054906101000a900460ff166108a9576040517f08c379a00000000000000000000000000000000000000000000000000000000081526004016108a0906113f2565b60405180910390fd5b6108b96108b4610488565b6104b2565b565b600082826040516020016108d0929190611594565b60405160208183030381529060405280519060200120905092915050565b6108f6610d97565b6109286109237f434841494e5f53414c545f4d41524b3a00000000000000000000000000000000846108bb565b610a94565b80602001905181019061093b91906116eb565b9050919050565b600060076000838152602001908152602001600020549050919050565b600061096a84610b39565b90508261097a8260800151610942565b1415801561099f57506000801b61099d6109988360000151866108bb565b610942565b145b6109de576040517f08c379a00000000000000000000000000000000000000000000000000000000081526004016109d590611764565b60405180910390fd5b60006109ed8260800151610942565b90506000801b8103610a0c57610a078260a0015185610d4f565b610a3b565b610a23610a1d8360200151836108bb565b85610d4f565b610a3a610a348360000151866108bb565b82610d4f565b5b610a49826080015185610d4f565b610a60610a5a8360400151866108bb565b84610d6b565b600160008360c0015181526020019081526020016000206000815480929190610a88906114f7565b91905055505050505050565b6060600460008381526020019081526020016000208054610ab4906117b3565b80601f0160208091040260200160405190810160405280929190818152602001828054610ae0906117b3565b8015610b2d5780601f10610b0257610100808354040283529160200191610b2d565b820191906000526020600020905b815481529060010190602001808311610b1057829003601f168201915b50505050509050919050565b610b41610d97565b6000610b75610b707f434841494e5f53414c545f4d41524b3a00000000000000000000000000000000856108bb565b610a94565b90506000815103610d325760006040518060e00160405280610bb77f434841494e5f505245563a000000000000000000000000000000000000000000876108bb565b8152602001610be67f434841494e5f4e4558543a000000000000000000000000000000000000000000876108bb565b8152602001610c157f434841494e5f444154413a000000000000000000000000000000000000000000876108bb565b8152602001610c447f434841494e5f53434f52453a0000000000000000000000000000000000000000876108bb565b8152602001610c737f434841494e5f4c4153543a000000000000000000000000000000000000000000876108bb565b8152602001610ca27f434841494e5f46495253543a0000000000000000000000000000000000000000876108bb565b8152602001610cd17f434841494e5f414d4f554e543a00000000000000000000000000000000000000876108bb565b8152509050610d28610d037f434841494e5f53414c545f4d41524b3a00000000000000000000000000000000866108bb565b82604051602001610d149190611872565b604051602081830303815290604052610d6b565b8092505050610d4a565b80806020019051810190610d4691906116eb565b9150505b919050565b8060076000848152602001908152602001600020819055505050565b80600460008481526020019081526020016000209080519060200190610d92929190610de9565b505050565b6040518060e00160405280600080191681526020016000801916815260200160008019168152602001600080191681526020016000801916815260200160008019168152602001600080191681525090565b828054610df5906117b3565b90600052602060002090601f016020900481019282610e175760008555610e5e565b82601f10610e3057805160ff1916838001178555610e5e565b82800160010185558215610e5e579182015b82811115610e5d578251825591602001919060010190610e42565b5b509050610e6b9190610e6f565b5090565b5b80821115610e88576000816000905550600101610e70565b5090565b6000604051905090565b600080fd5b600080fd5b600080fd5b600080fd5b600080fd5b60008083601f840112610ec557610ec4610ea0565b5b8235905067ffffffffffffffff811115610ee257610ee1610ea5565b5b602083019150836001820283011115610efe57610efd610eaa565b5b9250929050565b6000819050919050565b610f1881610f05565b8114610f2357600080fd5b50565b600081359050610f3581610f0f565b92915050565b60008115159050919050565b610f5081610f3b565b8114610f5b57600080fd5b50565b600081359050610f6d81610f47565b92915050565b60008060008060608587031215610f8d57610f8c610e96565b5b600085013567ffffffffffffffff811115610fab57610faa610e9b565b5b610fb787828801610eaf565b94509450506020610fca87828801610f26565b9250506040610fdb87828801610f5e565b91505092959194509250565b600081519050919050565b600082825260208201905092915050565b6000819050602082019050919050565b6000819050919050565b61102681611013565b82525050565b6000611038838361101d565b60208301905092915050565b6000602082019050919050565b600061105c82610fe7565b6110668185610ff2565b935061107183611003565b8060005b838110156110a2578151611089888261102c565b975061109483611044565b925050600181019050611075565b5085935050505092915050565b600060208201905081810360008301526110c98184611051565b905092915050565b6110da81611013565b81146110e557600080fd5b50565b6000813590506110f7816110d1565b92915050565b60006020828403121561111357611112610e96565b5b6000611121848285016110e8565b91505092915050565b600073ffffffffffffffffffffffffffffffffffffffff82169050919050565b60006111558261112a565b9050919050565b6111658161114a565b82525050565b6000602082019050611180600083018461115c565b92915050565b61118f8161114a565b811461119a57600080fd5b50565b6000813590506111ac81611186565b92915050565b6000602082840312156111c8576111c7610e96565b5b60006111d68482850161119d565b91505092915050565b600082825260208201905092915050565b7f4f776e61626c653a2063616c6c6572206973206e6f7420746865206f776e6572600082015250565b60006112266020836111df565b9150611231826111f0565b602082019050919050565b6000602082019050818103600083015261125581611219565b9050919050565b7f496e697469616c697a61626c653a20636f6e747261637420697320616c72656160008201527f647920696e697469616c697a6564000000000000000000000000000000000000602082015250565b60006112b8602e836111df565b91506112c38261125c565b604082019050919050565b600060208201905081810360008301526112e7816112ab565b9050919050565b7f4f776e61626c653a206e6577206f776e657220697320746865207a65726f206160008201527f6464726573730000000000000000000000000000000000000000000000000000602082015250565b600061134a6026836111df565b9150611355826112ee565b604082019050919050565b600060208201905081810360008301526113798161133d565b9050919050565b7f496e697469616c697a61626c653a20636f6e7472616374206973206e6f74206960008201527f6e697469616c697a696e67000000000000000000000000000000000000000000602082015250565b60006113dc602b836111df565b91506113e782611380565b604082019050919050565b6000602082019050818103600083015261140b816113cf565b9050919050565b600081905092915050565b82818337600083830152505050565b60006114388385611412565b935061144583858461141d565b82840190509392505050565b600061145e82848661142c565b91508190509392505050565b7f4e487b7100000000000000000000000000000000000000000000000000000000600052604160045260246000fd5b7f4e487b7100000000000000000000000000000000000000000000000000000000600052603260045260246000fd5b7f4e487b7100000000000000000000000000000000000000000000000000000000600052601160045260246000fd5b600061150282610f05565b91507fffffffffffffffffffffffffffffffffffffffffffffffffffffffffffffffff8203611534576115336114c8565b5b600182019050919050565b600061154a82610f05565b915061155583610f05565b925082821015611568576115676114c8565b5b828203905092915050565b6000819050919050565b61158e61158982611013565b611573565b82525050565b60006115a0828561157d565b6020820191506115b0828461157d565b6020820191508190509392505050565b600080fd5b6000601f19601f8301169050919050565b6115df826115c5565b810181811067ffffffffffffffff821117156115fe576115fd61146a565b5b80604052505050565b6000611611610e8c565b905061161d82826115d6565b919050565b600081519050611631816110d1565b92915050565b600060e0828403121561164d5761164c6115c0565b5b61165760e0611607565b9050600061166784828501611622565b600083015250602061167b84828501611622565b602083015250604061168f84828501611622565b60408301525060606116a384828501611622565b60608301525060806116b784828501611622565b60808301525060a06116cb84828501611622565b60a08301525060c06116df84828501611622565b60c08301525092915050565b600060e0828403121561170157611700610e96565b5b600061170f84828501611637565b91505092915050565b7f6f6e6c7920616c6c6f77207375626d6974206f6e636500000000000000000000600082015250565b600061174e6016836111df565b915061175982611718565b602082019050919050565b6000602082019050818103600083015261177d81611741565b9050919050565b7f4e487b7100000000000000000000000000000000000000000000000000000000600052602260045260246000fd5b600060028204905060018216806117cb57607f821691505b6020821081036117de576117dd611784565b5b50919050565b60e0820160008201516117fa600085018261101d565b50602082015161180d602085018261101d565b506040820151611820604085018261101d565b506060820151611833606085018261101d565b506080820151611846608085018261101d565b5060a082015161185960a085018261101d565b5060c082015161186c60c085018261101d565b50505050565b600060e08201905061188760008301846117e4565b9291505056fea2646970667358221220a8c1400c986353a040b37ca7c6b462eed53ac8f82c3b78d4d76adff85b81c6b564736f6c634300080d0033",
  "immutableReferences": {},
  "source": "// SPDX-License-Identifier: MIT\r\npragma solidity ^0.8.10;\r\n\r\nimport \"@openzeppelin/contracts-upgradeable/proxy/utils/Initializable.sol\";\r\nimport \"@openzeppelin/contracts-upgradeable/access/OwnableUpgradeable.sol\";\r\n\r\nimport \"../storages/EternalStorage.sol\";\r\nimport \"../storages/ChainStorage.sol\";\r\nimport \"../libraries/Encoder.sol\";\r\n\r\ncontract Explore is\r\n    Initializable,\r\n    EternalStorage,\r\n    ChainStorage,\r\n    OwnableUpgradeable\r\n{\r\n    function initialize() public initializer {\r\n        __Ownable_init();\r\n    }\r\n\r\n    function submitContentArIdKey(bytes32 arIdKey) external onlyOwner {\r\n        submitChainData(arIdKey);\r\n    }\r\n\r\n    // function test(bytes32 from, bytes32 to) external onlyOwner {\r\n    //     moveToAfter(from, to);\r\n    // }\r\n\r\n    function getExploreArIdKeyArray(\r\n        string calldata startArId,\r\n        uint256 amount,\r\n        bool reverse\r\n    ) external view returns (bytes32[] memory) {\r\n        return\r\n            getChainKeyArray(Encoder.stringToKey(startArId), amount, reverse);\r\n    }\r\n}\r\n",
  "sourcePath": "C:\\project\\web3\\totee\\contracts\\modules\\Explore.sol",
  "compiler": {
    "name": "solc",
    "version": "0.8.13+commit.abaa5c0e.Emscripten.clang"
  },
  "schemaVersion": "3.4.6",
  "updatedAt": "2022-04-26T03:49:56.454Z",
  "devdoc": {
    "kind": "dev",
    "methods": {
      "owner()": {
        "details": "Returns the address of the current owner."
      },
      "renounceOwnership()": {
        "details": "Leaves the contract without owner. It will not be possible to call `onlyOwner` functions anymore. Can only be called by the current owner. NOTE: Renouncing ownership will leave the contract without an owner, thereby removing any functionality that is only available to the owner."
      },
      "transferOwnership(address)": {
        "details": "Transfers ownership of the contract to a new account (`newOwner`). Can only be called by the current owner."
      }
    },
    "version": 1
  },
  "userdoc": {
    "kind": "user",
    "methods": {},
    "version": 1
  }
}