{
  "contractName": "ToteeV2Retot",
  "abi": [
    {
      "anonymous": false,
      "inputs": [
        {
          "indexed": true,
          "internalType": "address",
          "name": "previousOwner",
          "type": "address"
        },
        {
          "indexed": true,
          "internalType": "address",
          "name": "newOwner",
          "type": "address"
        }
      ],
      "name": "OwnershipTransferred",
      "type": "event"
    },
    {
      "inputs": [],
      "name": "owner",
      "outputs": [
        {
          "internalType": "address",
          "name": "",
          "type": "address"
        }
      ],
      "stateMutability": "view",
      "type": "function"
    },
    {
      "inputs": [],
      "name": "renounceOwnership",
      "outputs": [],
      "stateMutability": "nonpayable",
      "type": "function"
    },
    {
      "inputs": [
        {
          "internalType": "address",
          "name": "newOwner",
          "type": "address"
        }
      ],
      "name": "transferOwnership",
      "outputs": [],
      "stateMutability": "nonpayable",
      "type": "function"
    },
    {
      "inputs": [
        {
          "internalType": "contract User",
          "name": "user",
          "type": "address"
        },
        {
          "internalType": "contract ContentV2Retot",
          "name": "content",
          "type": "address"
        },
        {
          "internalType": "contract Explore",
          "name": "explore",
          "type": "address"
        },
        {
          "internalType": "contract Comment",
          "name": "comment",
          "type": "address"
        }
      ],
      "name": "initialize",
      "outputs": [],
      "stateMutability": "nonpayable",
      "type": "function"
    },
    {
      "inputs": [
        {
          "internalType": "string",
          "name": "username",
          "type": "string"
        }
      ],
      "name": "setUsername",
      "outputs": [],
      "stateMutability": "nonpayable",
      "type": "function"
    },
    {
      "inputs": [
        {
          "internalType": "string",
          "name": "avatarUrl",
          "type": "string"
        }
      ],
      "name": "setAvatarUrl",
      "outputs": [],
      "stateMutability": "nonpayable",
      "type": "function"
    },
    {
      "inputs": [
        {
          "internalType": "string",
          "name": "bannerUrl",
          "type": "string"
        }
      ],
      "name": "setBannerUrl",
      "outputs": [],
      "stateMutability": "nonpayable",
      "type": "function"
    },
    {
      "inputs": [
        {
          "internalType": "address",
          "name": "account",
          "type": "address"
        }
      ],
      "name": "getUsername",
      "outputs": [
        {
          "internalType": "string",
          "name": "",
          "type": "string"
        }
      ],
      "stateMutability": "view",
      "type": "function"
    },
    {
      "inputs": [
        {
          "internalType": "address",
          "name": "account",
          "type": "address"
        }
      ],
      "name": "getAvatarUrl",
      "outputs": [
        {
          "internalType": "string",
          "name": "",
          "type": "string"
        }
      ],
      "stateMutability": "view",
      "type": "function"
    },
    {
      "inputs": [
        {
          "internalType": "address",
          "name": "account",
          "type": "address"
        }
      ],
      "name": "getBannerUrl",
      "outputs": [
        {
          "internalType": "string",
          "name": "",
          "type": "string"
        }
      ],
      "stateMutability": "view",
      "type": "function"
    },
    {
      "inputs": [
        {
          "internalType": "address",
          "name": "account",
          "type": "address"
        }
      ],
      "name": "getUserPageInfo",
      "outputs": [
        {
          "components": [
            {
              "internalType": "string",
              "name": "username",
              "type": "string"
            },
            {
              "internalType": "string",
              "name": "avatarUrl",
              "type": "string"
            },
            {
              "internalType": "string",
              "name": "bannerUrl",
              "type": "string"
            }
          ],
          "internalType": "struct UserPageInfo",
          "name": "",
          "type": "tuple"
        }
      ],
      "stateMutability": "view",
      "type": "function"
    },
    {
      "inputs": [
        {
          "internalType": "string",
          "name": "arId",
          "type": "string"
        },
        {
          "internalType": "string",
          "name": "content",
          "type": "string"
        },
        {
          "internalType": "bool",
          "name": "completed",
          "type": "bool"
        }
      ],
      "name": "publishContent",
      "outputs": [],
      "stateMutability": "nonpayable",
      "type": "function"
    },
    {
      "inputs": [
        {
          "internalType": "string",
          "name": "replyToArId",
          "type": "string"
        },
        {
          "internalType": "string",
          "name": "commentArId",
          "type": "string"
        },
        {
          "internalType": "string",
          "name": "content",
          "type": "string"
        },
        {
          "internalType": "bool",
          "name": "completed",
          "type": "bool"
        }
      ],
      "name": "publishComment",
      "outputs": [],
      "stateMutability": "nonpayable",
      "type": "function"
    },
    {
      "inputs": [
        {
          "internalType": "string",
          "name": "contentArId",
          "type": "string"
        },
        {
          "internalType": "string",
          "name": "startCommentId",
          "type": "string"
        },
        {
          "internalType": "uint256",
          "name": "amount",
          "type": "uint256"
        },
        {
          "internalType": "bool",
          "name": "reverse",
          "type": "bool"
        }
      ],
      "name": "getCommentsByArId",
      "outputs": [
        {
          "components": [
            {
              "internalType": "string",
              "name": "replyToArId",
              "type": "string"
            },
            {
              "internalType": "string",
              "name": "authorName",
              "type": "string"
            },
            {
              "internalType": "string",
              "name": "avatarUrl",
              "type": "string"
            },
            {
              "internalType": "address",
              "name": "authorAccount",
              "type": "address"
            },
            {
              "internalType": "uint256",
              "name": "commentAmount",
              "type": "uint256"
            },
            {
              "internalType": "uint256",
              "name": "retotAmount",
              "type": "uint256"
            },
            {
              "internalType": "string",
              "name": "arId",
              "type": "string"
            },
            {
              "internalType": "string",
              "name": "content",
              "type": "string"
            },
            {
              "internalType": "bool",
              "name": "completed",
              "type": "bool"
            },
            {
              "internalType": "uint256",
              "name": "publishTime",
              "type": "uint256"
            }
          ],
          "internalType": "struct ResultContent[]",
          "name": "",
          "type": "tuple[]"
        }
      ],
      "stateMutability": "view",
      "type": "function"
    },
    {
      "inputs": [
        {
          "internalType": "address",
          "name": "account",
          "type": "address"
        },
        {
          "internalType": "string",
          "name": "startArId",
          "type": "string"
        },
        {
          "internalType": "uint256",
          "name": "amount",
          "type": "uint256"
        },
        {
          "internalType": "bool",
          "name": "reverse",
          "type": "bool"
        }
      ],
      "name": "getUserContents",
      "outputs": [
        {
          "components": [
            {
              "internalType": "string",
              "name": "replyToArId",
              "type": "string"
            },
            {
              "internalType": "string",
              "name": "authorName",
              "type": "string"
            },
            {
              "internalType": "string",
              "name": "avatarUrl",
              "type": "string"
            },
            {
              "internalType": "address",
              "name": "authorAccount",
              "type": "address"
            },
            {
              "internalType": "uint256",
              "name": "commentAmount",
              "type": "uint256"
            },
            {
              "internalType": "uint256",
              "name": "retotAmount",
              "type": "uint256"
            },
            {
              "internalType": "string",
              "name": "arId",
              "type": "string"
            },
            {
              "internalType": "string",
              "name": "content",
              "type": "string"
            },
            {
              "internalType": "bool",
              "name": "completed",
              "type": "bool"
            },
            {
              "internalType": "uint256",
              "name": "publishTime",
              "type": "uint256"
            }
          ],
          "internalType": "struct ResultContent[]",
          "name": "",
          "type": "tuple[]"
        }
      ],
      "stateMutability": "view",
      "type": "function"
    },
    {
      "inputs": [
        {
          "internalType": "string",
          "name": "arId",
          "type": "string"
        }
      ],
      "name": "removeContent",
      "outputs": [],
      "stateMutability": "nonpayable",
      "type": "function"
    },
    {
      "inputs": [
        {
          "internalType": "string",
          "name": "startArId",
          "type": "string"
        },
        {
          "internalType": "uint256",
          "name": "amount",
          "type": "uint256"
        },
        {
          "internalType": "bool",
          "name": "reverse",
          "type": "bool"
        }
      ],
      "name": "getExploreContents",
      "outputs": [
        {
          "components": [
            {
              "internalType": "string",
              "name": "replyToArId",
              "type": "string"
            },
            {
              "internalType": "string",
              "name": "authorName",
              "type": "string"
            },
            {
              "internalType": "string",
              "name": "avatarUrl",
              "type": "string"
            },
            {
              "internalType": "address",
              "name": "authorAccount",
              "type": "address"
            },
            {
              "internalType": "uint256",
              "name": "commentAmount",
              "type": "uint256"
            },
            {
              "internalType": "uint256",
              "name": "retotAmount",
              "type": "uint256"
            },
            {
              "internalType": "string",
              "name": "arId",
              "type": "string"
            },
            {
              "internalType": "string",
              "name": "content",
              "type": "string"
            },
            {
              "internalType": "bool",
              "name": "completed",
              "type": "bool"
            },
            {
              "internalType": "uint256",
              "name": "publishTime",
              "type": "uint256"
            }
          ],
          "internalType": "struct ResultContent[]",
          "name": "",
          "type": "tuple[]"
        }
      ],
      "stateMutability": "view",
      "type": "function"
    },
    {
      "inputs": [
        {
          "internalType": "string",
          "name": "arId",
          "type": "string"
        }
      ],
      "name": "retot",
      "outputs": [],
      "stateMutability": "nonpayable",
      "type": "function"
    }
  ],
  "bytecode": "0x608060405234801561001057600080fd5b50613362806100206000396000f3fe608060405234801561001057600080fd5b50600436106101165760003560e01c8063b951e95e116100a2578063d00f161211610071578063d00f1612146102ef578063d68d685a1461030b578063ed59313a1461033b578063f2fde38b14610357578063f8c8765e1461037357610116565b8063b951e95e14610243578063c5a77ca014610273578063ce43c0321461028f578063cff80385146102bf57610116565b80634db4795f116100e95780634db4795f146101c75780636e7f6742146101e3578063715018a6146101ff57806380b58dfe146102095780638da5cb5b1461022557610116565b8063082ec2ab1461011b5780630e1ca6fb1461014b5780633d509a841461017b578063499eca8914610197575b600080fd5b61013560048036038101906101309190611c78565b61038f565b6040516101429190611d3e565b60405180910390f35b61016560048036038101906101609190611c78565b610439565b6040516101729190611e08565b60405180910390f35b61019560048036038101906101909190611e8f565b6104e9565b005b6101b160048036038101906101ac9190611f4a565b61057e565b6040516101be91906121a3565b60405180910390f35b6101e160048036038101906101dc9190611e8f565b6106e5565b005b6101fd60048036038101906101f891906121c5565b61077a565b005b6102076108d2565b005b610223600480360381019061021e919061228e565b61095a565b005b61022d610b2a565b60405161023a9190612332565b60405180910390f35b61025d6004803603810190610258919061234d565b610b54565b60405161026a91906121a3565b60405180910390f35b61028d60048036038101906102889190611e8f565b610cc1565b005b6102a960048036038101906102a49190611c78565b610ecb565b6040516102b69190611d3e565b60405180910390f35b6102d960048036038101906102d491906123f4565b610f75565b6040516102e691906121a3565b60405180910390f35b61030960048036038101906103049190611e8f565b6110df565b005b61032560048036038101906103209190611c78565b611181565b6040516103329190611d3e565b60405180910390f35b61035560048036038101906103509190611e8f565b61122b565b005b610371600480360381019061036c9190611c78565b6112c0565b005b61038d60048036038101906103889190612574565b6113b7565b005b6060606560009054906101000a900473ffffffffffffffffffffffffffffffffffffffff1673ffffffffffffffffffffffffffffffffffffffff1663082ec2ab836040518263ffffffff1660e01b81526004016103ec9190612332565b600060405180830381865afa158015610409573d6000803e3d6000fd5b505050506040513d6000823e3d601f19601f8201168201806040525081019061043291906126fc565b9050919050565b610441611b7a565b606560009054906101000a900473ffffffffffffffffffffffffffffffffffffffff1673ffffffffffffffffffffffffffffffffffffffff16630e1ca6fb836040518263ffffffff1660e01b815260040161049c9190612332565b600060405180830381865afa1580156104b9573d6000803e3d6000fd5b505050506040513d6000823e3d601f19601f820116820180604052508101906104e29190612807565b9050919050565b606560009054906101000a900473ffffffffffffffffffffffffffffffffffffffff1673ffffffffffffffffffffffffffffffffffffffff1663610f0b263384846040518463ffffffff1660e01b81526004016105489392919061288c565b600060405180830381600087803b15801561056257600080fd5b505af1158015610576573d6000803e3d6000fd5b505050505050565b60606000606760009054906101000a900473ffffffffffffffffffffffffffffffffffffffff1673ffffffffffffffffffffffffffffffffffffffff166313a15cff878787876040518563ffffffff1660e01b81526004016105e394939291906128dc565b600060405180830381865afa158015610600573d6000803e3d6000fd5b505050506040513d6000823e3d601f19601f820116820180604052508101906106299190612a15565b90506000606660009054906101000a900473ffffffffffffffffffffffffffffffffffffffff1673ffffffffffffffffffffffffffffffffffffffff1663f2175bd1836040518263ffffffff1660e01b81526004016106889190612b1c565b600060405180830381865afa1580156106a5573d6000803e3d6000fd5b505050506040513d6000823e3d601f19601f820116820180604052508101906106ce9190612d52565b90506106d9816115a3565b92505050949350505050565b606560009054906101000a900473ffffffffffffffffffffffffffffffffffffffff1673ffffffffffffffffffffffffffffffffffffffff1663e1018c8b3384846040518463ffffffff1660e01b81526004016107449392919061288c565b600060405180830381600087803b15801561075e57600080fd5b505af1158015610772573d6000803e3d6000fd5b505050505050565b6000606660009054906101000a900473ffffffffffffffffffffffffffffffffffffffff1673ffffffffffffffffffffffffffffffffffffffff1663797af37d338a8a8a8a8a8a8a6040518963ffffffff1660e01b81526004016107e5989796959493929190612d9b565b6020604051808303816000875af1158015610804573d6000803e3d6000fd5b505050506040513d601f19601f820116820180604052508101906108289190612e09565b905060006108368989611a45565b9050606860009054906101000a900473ffffffffffffffffffffffffffffffffffffffff1673ffffffffffffffffffffffffffffffffffffffff16630d40220982846040518363ffffffff1660e01b8152600401610895929190612e45565b600060405180830381600087803b1580156108af57600080fd5b505af11580156108c3573d6000803e3d6000fd5b50505050505050505050505050565b6108da611a78565b73ffffffffffffffffffffffffffffffffffffffff166108f8610b2a565b73ffffffffffffffffffffffffffffffffffffffff161461094e576040517f08c379a000000000000000000000000000000000000000000000000000000000815260040161094590612eba565b60405180910390fd5b6109586000611a80565b565b6000606660009054906101000a900473ffffffffffffffffffffffffffffffffffffffff1673ffffffffffffffffffffffffffffffffffffffff1663797af37d3388888888886040518763ffffffff1660e01b81526004016109c196959493929190612f00565b6020604051808303816000875af11580156109e0573d6000803e3d6000fd5b505050506040513d601f19601f82011682018060405250810190610a049190612e09565b9050606560009054906101000a900473ffffffffffffffffffffffffffffffffffffffff1673ffffffffffffffffffffffffffffffffffffffff1663f4b95e3433836040518363ffffffff1660e01b8152600401610a63929190612f6a565b600060405180830381600087803b158015610a7d57600080fd5b505af1158015610a91573d6000803e3d6000fd5b50505050606760009054906101000a900473ffffffffffffffffffffffffffffffffffffffff1673ffffffffffffffffffffffffffffffffffffffff1663224f1a27826040518263ffffffff1660e01b8152600401610af09190612f93565b600060405180830381600087803b158015610b0a57600080fd5b505af1158015610b1e573d6000803e3d6000fd5b50505050505050505050565b6000603360009054906101000a900473ffffffffffffffffffffffffffffffffffffffff16905090565b60606000606860009054906101000a900473ffffffffffffffffffffffffffffffffffffffff1673ffffffffffffffffffffffffffffffffffffffff1663806029968989898989896040518763ffffffff1660e01b8152600401610bbd96959493929190612fae565b600060405180830381865afa158015610bda573d6000803e3d6000fd5b505050506040513d6000823e3d601f19601f82011682018060405250810190610c039190612a15565b90506000606660009054906101000a900473ffffffffffffffffffffffffffffffffffffffff1673ffffffffffffffffffffffffffffffffffffffff1663f2175bd1836040518263ffffffff1660e01b8152600401610c629190612b1c565b600060405180830381865afa158015610c7f573d6000803e3d6000fd5b505050506040513d6000823e3d601f19601f82011682018060405250810190610ca89190612d52565b9050610cb3816115a3565b925050509695505050505050565b6000610ccd8383611a45565b9050606660009054906101000a900473ffffffffffffffffffffffffffffffffffffffff1673ffffffffffffffffffffffffffffffffffffffff1663762fee18826040518263ffffffff1660e01b8152600401610d2a9190612f93565b602060405180830381865afa158015610d47573d6000803e3d6000fd5b505050506040513d601f19601f82011682018060405250810190610d6b9190613005565b610daa576040517f08c379a0000000000000000000000000000000000000000000000000000000008152600401610da19061307e565b60405180910390fd5b606660009054906101000a900473ffffffffffffffffffffffffffffffffffffffff1673ffffffffffffffffffffffffffffffffffffffff16638a522f0b826040518263ffffffff1660e01b8152600401610e059190612f93565b600060405180830381600087803b158015610e1f57600080fd5b505af1158015610e33573d6000803e3d6000fd5b50505050606560009054906101000a900473ffffffffffffffffffffffffffffffffffffffff1673ffffffffffffffffffffffffffffffffffffffff1663f4b95e3433836040518363ffffffff1660e01b8152600401610e94929190612f6a565b600060405180830381600087803b158015610eae57600080fd5b505af1158015610ec2573d6000803e3d6000fd5b50505050505050565b6060606560009054906101000a900473ffffffffffffffffffffffffffffffffffffffff1673ffffffffffffffffffffffffffffffffffffffff1663ce43c032836040518263ffffffff1660e01b8152600401610f289190612332565b600060405180830381865afa158015610f45573d6000803e3d6000fd5b505050506040513d6000823e3d601f19601f82011682018060405250810190610f6e91906126fc565b9050919050565b60606000606560009054906101000a900473ffffffffffffffffffffffffffffffffffffffff1673ffffffffffffffffffffffffffffffffffffffff1663f8a75f4388888888886040518663ffffffff1660e01b8152600401610fdc95949392919061309e565b600060405180830381865afa158015610ff9573d6000803e3d6000fd5b505050506040513d6000823e3d601f19601f820116820180604052508101906110229190612a15565b90506000606660009054906101000a900473ffffffffffffffffffffffffffffffffffffffff1673ffffffffffffffffffffffffffffffffffffffff1663f2175bd1836040518263ffffffff1660e01b81526004016110819190612b1c565b600060405180830381865afa15801561109e573d6000803e3d6000fd5b505050506040513d6000823e3d601f19601f820116820180604052508101906110c79190612d52565b90506110d2816115a3565b9250505095945050505050565b60006110eb8383611a45565b9050606560009054906101000a900473ffffffffffffffffffffffffffffffffffffffff1673ffffffffffffffffffffffffffffffffffffffff1663d23654e033836040518363ffffffff1660e01b815260040161114a929190612f6a565b600060405180830381600087803b15801561116457600080fd5b505af1158015611178573d6000803e3d6000fd5b50505050505050565b6060606560009054906101000a900473ffffffffffffffffffffffffffffffffffffffff1673ffffffffffffffffffffffffffffffffffffffff1663d68d685a836040518263ffffffff1660e01b81526004016111de9190612332565b600060405180830381865afa1580156111fb573d6000803e3d6000fd5b505050506040513d6000823e3d601f19601f8201168201806040525081019061122491906126fc565b9050919050565b606560009054906101000a900473ffffffffffffffffffffffffffffffffffffffff1673ffffffffffffffffffffffffffffffffffffffff1663e20454523384846040518463ffffffff1660e01b815260040161128a9392919061288c565b600060405180830381600087803b1580156112a457600080fd5b505af11580156112b8573d6000803e3d6000fd5b505050505050565b6112c8611a78565b73ffffffffffffffffffffffffffffffffffffffff166112e6610b2a565b73ffffffffffffffffffffffffffffffffffffffff161461133c576040517f08c379a000000000000000000000000000000000000000000000000000000000815260040161133390612eba565b60405180910390fd5b600073ffffffffffffffffffffffffffffffffffffffff168173ffffffffffffffffffffffffffffffffffffffff16036113ab576040517f08c379a00000000000000000000000000000000000000000000000000000000081526004016113a29061315e565b60405180910390fd5b6113b481611a80565b50565b600060019054906101000a900460ff166113df5760008054906101000a900460ff16156113e8565b6113e7611b46565b5b611427576040517f08c379a000000000000000000000000000000000000000000000000000000000815260040161141e906131f0565b60405180910390fd5b60008060019054906101000a900460ff161590508015611477576001600060016101000a81548160ff02191690831515021790555060016000806101000a81548160ff0219169083151502179055505b84606560006101000a81548173ffffffffffffffffffffffffffffffffffffffff021916908373ffffffffffffffffffffffffffffffffffffffff16021790555083606660006101000a81548173ffffffffffffffffffffffffffffffffffffffff021916908373ffffffffffffffffffffffffffffffffffffffff16021790555082606760006101000a81548173ffffffffffffffffffffffffffffffffffffffff021916908373ffffffffffffffffffffffffffffffffffffffff16021790555081606860006101000a81548173ffffffffffffffffffffffffffffffffffffffff021916908373ffffffffffffffffffffffffffffffffffffffff160217905550801561159c5760008060016101000a81548160ff0219169083151502179055505b5050505050565b60606000825167ffffffffffffffff8111156115c2576115c16125e0565b5b6040519080825280602002602001820160405280156115fb57816020015b6115e8611b9b565b8152602001906001900390816115e05790505b50905060005b8351811015611a3b5760405180610140016040528085838151811061162957611628613210565b5b6020026020010151600001518152602001606560009054906101000a900473ffffffffffffffffffffffffffffffffffffffff1673ffffffffffffffffffffffffffffffffffffffff1663ce43c03287858151811061168b5761168a613210565b5b6020026020010151604001516040518263ffffffff1660e01b81526004016116b39190612332565b600060405180830381865afa1580156116d0573d6000803e3d6000fd5b505050506040513d6000823e3d601f19601f820116820180604052508101906116f991906126fc565b8152602001606560009054906101000a900473ffffffffffffffffffffffffffffffffffffffff1673ffffffffffffffffffffffffffffffffffffffff1663d68d685a87858151811061174f5761174e613210565b5b6020026020010151604001516040518263ffffffff1660e01b81526004016117779190612332565b600060405180830381865afa158015611794573d6000803e3d6000fd5b505050506040513d6000823e3d601f19601f820116820180604052508101906117bd91906126fc565b81526020018583815181106117d5576117d4613210565b5b60200260200101516040015173ffffffffffffffffffffffffffffffffffffffff168152602001606860009054906101000a900473ffffffffffffffffffffffffffffffffffffffff1673ffffffffffffffffffffffffffffffffffffffff16639236489187858151811061184d5761184c613210565b5b6020026020010151602001516040518263ffffffff1660e01b81526004016118759190611d3e565b602060405180830381865afa158015611892573d6000803e3d6000fd5b505050506040513d601f19601f820116820180604052508101906118b6919061323f565b8152602001606660009054906101000a900473ffffffffffffffffffffffffffffffffffffffff1673ffffffffffffffffffffffffffffffffffffffff16632aea7a3d87858151811061190c5761190b613210565b5b6020026020010151602001516040518263ffffffff1660e01b81526004016119349190611d3e565b602060405180830381865afa158015611951573d6000803e3d6000fd5b505050506040513d601f19601f82011682018060405250810190611975919061323f565b815260200185838151811061198d5761198c613210565b5b60200260200101516020015181526020018583815181106119b1576119b0613210565b5b60200260200101516060015181526020018583815181106119d5576119d4613210565b5b602002602001015160800151151581526020018583815181106119fb576119fa613210565b5b602002602001015160a00151815250828281518110611a1d57611a1c613210565b5b60200260200101819052508080611a339061329b565b915050611601565b5080915050919050565b60008282604051602001611a5a929190613313565b60405160208183030381529060405280519060200120905092915050565b600033905090565b6000603360009054906101000a900473ffffffffffffffffffffffffffffffffffffffff16905081603360006101000a81548173ffffffffffffffffffffffffffffffffffffffff021916908373ffffffffffffffffffffffffffffffffffffffff1602179055508173ffffffffffffffffffffffffffffffffffffffff168173ffffffffffffffffffffffffffffffffffffffff167f8be0079c531659141344cd1fd0a4f28419497f9722a3daafe3b4186f6b6457e060405160405180910390a35050565b6000611b5130611b57565b15905090565b6000808273ffffffffffffffffffffffffffffffffffffffff163b119050919050565b60405180606001604052806060815260200160608152602001606081525090565b604051806101400160405280606081526020016060815260200160608152602001600073ffffffffffffffffffffffffffffffffffffffff16815260200160008152602001600081526020016060815260200160608152602001600015158152602001600081525090565b6000604051905090565b600080fd5b600080fd5b600073ffffffffffffffffffffffffffffffffffffffff82169050919050565b6000611c4582611c1a565b9050919050565b611c5581611c3a565b8114611c6057600080fd5b50565b600081359050611c7281611c4c565b92915050565b600060208284031215611c8e57611c8d611c10565b5b6000611c9c84828501611c63565b91505092915050565b600081519050919050565b600082825260208201905092915050565b60005b83811015611cdf578082015181840152602081019050611cc4565b83811115611cee576000848401525b50505050565b6000601f19601f8301169050919050565b6000611d1082611ca5565b611d1a8185611cb0565b9350611d2a818560208601611cc1565b611d3381611cf4565b840191505092915050565b60006020820190508181036000830152611d588184611d05565b905092915050565b600082825260208201905092915050565b6000611d7c82611ca5565b611d868185611d60565b9350611d96818560208601611cc1565b611d9f81611cf4565b840191505092915050565b60006060830160008301518482036000860152611dc78282611d71565b91505060208301518482036020860152611de18282611d71565b91505060408301518482036040860152611dfb8282611d71565b9150508091505092915050565b60006020820190508181036000830152611e228184611daa565b905092915050565b600080fd5b600080fd5b600080fd5b60008083601f840112611e4f57611e4e611e2a565b5b8235905067ffffffffffffffff811115611e6c57611e6b611e2f565b5b602083019150836001820283011115611e8857611e87611e34565b5b9250929050565b60008060208385031215611ea657611ea5611c10565b5b600083013567ffffffffffffffff811115611ec457611ec3611c15565b5b611ed085828601611e39565b92509250509250929050565b6000819050919050565b611eef81611edc565b8114611efa57600080fd5b50565b600081359050611f0c81611ee6565b92915050565b60008115159050919050565b611f2781611f12565b8114611f3257600080fd5b50565b600081359050611f4481611f1e565b92915050565b60008060008060608587031215611f6457611f63611c10565b5b600085013567ffffffffffffffff811115611f8257611f81611c15565b5b611f8e87828801611e39565b94509450506020611fa187828801611efd565b9250506040611fb287828801611f35565b91505092959194509250565b600081519050919050565b600082825260208201905092915050565b6000819050602082019050919050565b611ff381611c3a565b82525050565b61200281611edc565b82525050565b61201181611f12565b82525050565b60006101408301600083015184820360008601526120358282611d71565b9150506020830151848203602086015261204f8282611d71565b915050604083015184820360408601526120698282611d71565b915050606083015161207e6060860182611fea565b5060808301516120916080860182611ff9565b5060a08301516120a460a0860182611ff9565b5060c083015184820360c08601526120bc8282611d71565b91505060e083015184820360e08601526120d68282611d71565b9150506101008301516120ed610100860182612008565b50610120830151612102610120860182611ff9565b508091505092915050565b60006121198383612017565b905092915050565b6000602082019050919050565b600061213982611fbe565b6121438185611fc9565b93508360208202850161215585611fda565b8060005b858110156121915784840389528151612172858261210d565b945061217d83612121565b925060208a01995050600181019050612159565b50829750879550505050505092915050565b600060208201905081810360008301526121bd818461212e565b905092915050565b60008060008060008060006080888a0312156121e4576121e3611c10565b5b600088013567ffffffffffffffff81111561220257612201611c15565b5b61220e8a828b01611e39565b9750975050602088013567ffffffffffffffff81111561223157612230611c15565b5b61223d8a828b01611e39565b9550955050604088013567ffffffffffffffff8111156122605761225f611c15565b5b61226c8a828b01611e39565b9350935050606061227f8a828b01611f35565b91505092959891949750929550565b6000806000806000606086880312156122aa576122a9611c10565b5b600086013567ffffffffffffffff8111156122c8576122c7611c15565b5b6122d488828901611e39565b9550955050602086013567ffffffffffffffff8111156122f7576122f6611c15565b5b61230388828901611e39565b9350935050604061231688828901611f35565b9150509295509295909350565b61232c81611c3a565b82525050565b60006020820190506123476000830184612323565b92915050565b6000806000806000806080878903121561236a57612369611c10565b5b600087013567ffffffffffffffff81111561238857612387611c15565b5b61239489828a01611e39565b9650965050602087013567ffffffffffffffff8111156123b7576123b6611c15565b5b6123c389828a01611e39565b945094505060406123d689828a01611efd565b92505060606123e789828a01611f35565b9150509295509295509295565b6000806000806000608086880312156124105761240f611c10565b5b600061241e88828901611c63565b955050602086013567ffffffffffffffff81111561243f5761243e611c15565b5b61244b88828901611e39565b9450945050604061245e88828901611efd565b925050606061246f88828901611f35565b9150509295509295909350565b600061248782611c3a565b9050919050565b6124978161247c565b81146124a257600080fd5b50565b6000813590506124b48161248e565b92915050565b60006124c582611c3a565b9050919050565b6124d5816124ba565b81146124e057600080fd5b50565b6000813590506124f2816124cc565b92915050565b600061250382611c3a565b9050919050565b612513816124f8565b811461251e57600080fd5b50565b6000813590506125308161250a565b92915050565b600061254182611c3a565b9050919050565b61255181612536565b811461255c57600080fd5b50565b60008135905061256e81612548565b92915050565b6000806000806080858703121561258e5761258d611c10565b5b600061259c878288016124a5565b94505060206125ad878288016124e3565b93505060406125be87828801612521565b92505060606125cf8782880161255f565b91505092959194509250565b600080fd5b7f4e487b7100000000000000000000000000000000000000000000000000000000600052604160045260246000fd5b61261882611cf4565b810181811067ffffffffffffffff82111715612637576126366125e0565b5b80604052505050565b600061264a611c06565b9050612656828261260f565b919050565b600067ffffffffffffffff821115612676576126756125e0565b5b61267f82611cf4565b9050602081019050919050565b600061269f61269a8461265b565b612640565b9050828152602081018484840111156126bb576126ba6125db565b5b6126c6848285611cc1565b509392505050565b600082601f8301126126e3576126e2611e2a565b5b81516126f384826020860161268c565b91505092915050565b60006020828403121561271257612711611c10565b5b600082015167ffffffffffffffff8111156127305761272f611c15565b5b61273c848285016126ce565b91505092915050565b600080fd5b600080fd5b60006060828403121561276557612764612745565b5b61276f6060612640565b9050600082015167ffffffffffffffff81111561278f5761278e61274a565b5b61279b848285016126ce565b600083015250602082015167ffffffffffffffff8111156127bf576127be61274a565b5b6127cb848285016126ce565b602083015250604082015167ffffffffffffffff8111156127ef576127ee61274a565b5b6127fb848285016126ce565b60408301525092915050565b60006020828403121561281d5761281c611c10565b5b600082015167ffffffffffffffff81111561283b5761283a611c15565b5b6128478482850161274f565b91505092915050565b82818337600083830152505050565b600061286b8385611cb0565b9350612878838584612850565b61288183611cf4565b840190509392505050565b60006040820190506128a16000830186612323565b81810360208301526128b481848661285f565b9050949350505050565b6128c781611edc565b82525050565b6128d681611f12565b82525050565b600060608201905081810360008301526128f781868861285f565b905061290660208301856128be565b61291360408301846128cd565b95945050505050565b600067ffffffffffffffff821115612937576129366125e0565b5b602082029050602081019050919050565b6000819050919050565b61295b81612948565b811461296657600080fd5b50565b60008151905061297881612952565b92915050565b600061299161298c8461291c565b612640565b905080838252602082019050602084028301858111156129b4576129b3611e34565b5b835b818110156129dd57806129c98882612969565b8452602084019350506020810190506129b6565b5050509392505050565b600082601f8301126129fc576129fb611e2a565b5b8151612a0c84826020860161297e565b91505092915050565b600060208284031215612a2b57612a2a611c10565b5b600082015167ffffffffffffffff811115612a4957612a48611c15565b5b612a55848285016129e7565b91505092915050565b600081519050919050565b600082825260208201905092915050565b6000819050602082019050919050565b612a9381612948565b82525050565b6000612aa58383612a8a565b60208301905092915050565b6000602082019050919050565b6000612ac982612a5e565b612ad38185612a69565b9350612ade83612a7a565b8060005b83811015612b0f578151612af68882612a99565b9750612b0183612ab1565b925050600181019050612ae2565b5085935050505092915050565b60006020820190508181036000830152612b368184612abe565b905092915050565b600067ffffffffffffffff821115612b5957612b586125e0565b5b602082029050602081019050919050565b600081519050612b7981611c4c565b92915050565b600081519050612b8e81611f1e565b92915050565b600081519050612ba381611ee6565b92915050565b600060c08284031215612bbf57612bbe612745565b5b612bc960c0612640565b9050600082015167ffffffffffffffff811115612be957612be861274a565b5b612bf5848285016126ce565b600083015250602082015167ffffffffffffffff811115612c1957612c1861274a565b5b612c25848285016126ce565b6020830152506040612c3984828501612b6a565b604083015250606082015167ffffffffffffffff811115612c5d57612c5c61274a565b5b612c69848285016126ce565b6060830152506080612c7d84828501612b7f565b60808301525060a0612c9184828501612b94565b60a08301525092915050565b6000612cb0612cab84612b3e565b612640565b90508083825260208201905060208402830185811115612cd357612cd2611e34565b5b835b81811015612d1a57805167ffffffffffffffff811115612cf857612cf7611e2a565b5b808601612d058982612ba9565b85526020850194505050602081019050612cd5565b5050509392505050565b600082601f830112612d3957612d38611e2a565b5b8151612d49848260208601612c9d565b91505092915050565b600060208284031215612d6857612d67611c10565b5b600082015167ffffffffffffffff811115612d8657612d85611c15565b5b612d9284828501612d24565b91505092915050565b600060a082019050612db0600083018b612323565b8181036020830152612dc381898b61285f565b90508181036040830152612dd881878961285f565b90508181036060830152612ded81858761285f565b9050612dfc60808301846128cd565b9998505050505050505050565b600060208284031215612e1f57612e1e611c10565b5b6000612e2d84828501612969565b91505092915050565b612e3f81612948565b82525050565b6000604082019050612e5a6000830185612e36565b612e676020830184612e36565b9392505050565b7f4f776e61626c653a2063616c6c6572206973206e6f7420746865206f776e6572600082015250565b6000612ea4602083611cb0565b9150612eaf82612e6e565b602082019050919050565b60006020820190508181036000830152612ed381612e97565b9050919050565b50565b6000612eea600083611cb0565b9150612ef582612eda565b600082019050919050565b600060a082019050612f156000830189612323565b8181036020830152612f2681612edd565b90508181036040830152612f3b81878961285f565b90508181036060830152612f5081858761285f565b9050612f5f60808301846128cd565b979650505050505050565b6000604082019050612f7f6000830185612323565b612f8c6020830184612e36565b9392505050565b6000602082019050612fa86000830184612e36565b92915050565b60006080820190508181036000830152612fc981888a61285f565b90508181036020830152612fde81868861285f565b9050612fed60408301856128be565b612ffa60608301846128cd565b979650505050505050565b60006020828403121561301b5761301a611c10565b5b600061302984828501612b7f565b91505092915050565b7f6e656564206120617661696c61626c6520617249640000000000000000000000600082015250565b6000613068601583611cb0565b915061307382613032565b602082019050919050565b600060208201905081810360008301526130978161305b565b9050919050565b60006080820190506130b36000830188612323565b81810360208301526130c681868861285f565b90506130d560408301856128be565b6130e260608301846128cd565b9695505050505050565b7f4f776e61626c653a206e6577206f776e657220697320746865207a65726f206160008201527f6464726573730000000000000000000000000000000000000000000000000000602082015250565b6000613148602683611cb0565b9150613153826130ec565b604082019050919050565b600060208201905081810360008301526131778161313b565b9050919050565b7f496e697469616c697a61626c653a20636f6e747261637420697320616c72656160008201527f647920696e697469616c697a6564000000000000000000000000000000000000602082015250565b60006131da602e83611cb0565b91506131e58261317e565b604082019050919050565b60006020820190508181036000830152613209816131cd565b9050919050565b7f4e487b7100000000000000000000000000000000000000000000000000000000600052603260045260246000fd5b60006020828403121561325557613254611c10565b5b600061326384828501612b94565b91505092915050565b7f4e487b7100000000000000000000000000000000000000000000000000000000600052601160045260246000fd5b60006132a682611edc565b91507fffffffffffffffffffffffffffffffffffffffffffffffffffffffffffffffff82036132d8576132d761326c565b5b600182019050919050565b600081905092915050565b60006132fa83856132e3565b9350613307838584612850565b82840190509392505050565b60006133208284866132ee565b9150819050939250505056fea2646970667358221220e0c9244f4fdd347bde0d924c24ef61707c3938cde0e621c1e315eadf0354052564736f6c634300080d0033",
  "immutableReferences": {},
  "source": "// SPDX-License-Identifier: MIT\npragma solidity ^0.8.10;\n\nimport \"@openzeppelin/contracts-upgradeable/proxy/utils/Initializable.sol\";\nimport \"@openzeppelin/contracts-upgradeable/access/OwnableUpgradeable.sol\";\n\nimport \"./storages/EternalStorage.sol\";\nimport \"./modules/User.sol\";\nimport \"./modules/ContentV2Retot.sol\";\nimport \"./modules/Explore.sol\";\nimport \"./modules/Comment.sol\";\n\nstruct ResultContent {\n    string replyToArId;\n    string authorName;\n    string avatarUrl;\n    address authorAccount;\n    uint256 commentAmount;\n    uint256 retotAmount;\n    string arId;\n    string content;\n    bool completed;\n    uint256 publishTime;\n}\n\ncontract ToteeV2Retot is Initializable, OwnableUpgradeable {\n    User private _user;\n    ContentV2Retot private _content;\n    Explore private _explore;\n    Comment private _comment;\n\n    function initialize(\n        User user,\n        ContentV2Retot content,\n        Explore explore,\n        Comment comment\n    ) public initializer {\n        _user = user;\n        _content = content;\n        _explore = explore;\n        _comment = comment;\n    }\n\n    function setUsername(string calldata username) public {\n        _user.setUsername(msg.sender, username);\n    }\n\n    function setAvatarUrl(string calldata avatarUrl) public {\n        _user.setAvatarUrl(msg.sender, avatarUrl);\n    }\n\n    function setBannerUrl(string calldata bannerUrl) public {\n        _user.setBannerUrl(msg.sender, bannerUrl);\n    }\n\n    function getUsername(address account) public view returns (string memory) {\n        return _user.getUsername(account);\n    }\n\n    function getAvatarUrl(address account) public view returns (string memory) {\n        return _user.getAvatarUrl(account);\n    }\n\n    function getBannerUrl(address account) public view returns (string memory) {\n        return _user.getBannerUrl(account);\n    }\n\n    function getUserPageInfo(address account)\n        public\n        view\n        returns (UserPageInfo memory)\n    {\n        return _user.getUserPageInfo(account);\n    }\n\n    function publishContent(\n        string calldata arId,\n        string calldata content,\n        bool completed\n    ) external {\n        bytes32 arIdKey = _content.publishContent(\n            msg.sender,\n            \"\",\n            arId,\n            content,\n            completed\n        );\n        _user.submitContentArIdKey(msg.sender, arIdKey);\n        _explore.submitContentArIdKey(arIdKey);\n    }\n\n    function publishComment(\n        string calldata replyToArId,\n        string calldata commentArId,\n        string calldata content,\n        bool completed\n    ) external {\n        bytes32 commentArIdKey = _content.publishContent(\n            msg.sender,\n            replyToArId,\n            commentArId,\n            content,\n            completed\n        );\n        bytes32 replyToArIdKey = Encoder.getKey(replyToArId);\n        _comment.submitCommentId(replyToArIdKey, commentArIdKey);\n    }\n\n    function getCommentsByArId(\n        string calldata contentArId,\n        string calldata startCommentId,\n        uint256 amount,\n        bool reverse\n    ) public view returns (ResultContent[] memory) {\n        bytes32[] memory commentIds = _comment.getCommentIdArray(\n            contentArId,\n            startCommentId,\n            amount,\n            reverse\n        );\n        ReturnContent[] memory comments = _content.getContentsByArIdKeyArray(\n            commentIds\n        );\n\n        return getResultContentByReturn(comments);\n    }\n\n    function getUserContents(\n        address account,\n        string calldata startArId,\n        uint256 amount,\n        bool reverse\n    ) public view returns (ResultContent[] memory) {\n        bytes32[] memory arIdKeys = _user.getContentArIdKeyArray(\n            account,\n            startArId,\n            amount,\n            reverse\n        );\n\n        ReturnContent[] memory contents = _content.getContentsByArIdKeyArray(\n            arIdKeys\n        );\n\n        return getResultContentByReturn(contents);\n    }\n\n    function removeContent(string calldata arId) public {\n        bytes32 arIdKey = Encoder.getKey(arId);\n        _user.removeContentByArIdKey(msg.sender, arIdKey);\n    }\n\n    function getResultContentByReturn(ReturnContent[] memory contents)\n        internal\n        view\n        returns (ResultContent[] memory)\n    {\n        ResultContent[] memory result = new ResultContent[](contents.length);\n\n        for (uint256 i = 0; i < contents.length; i++) {\n            result[i] = ResultContent({\n                replyToArId: contents[i].replyToArId,\n                authorName: _user.getUsername(contents[i].authorAccount),\n                avatarUrl: _user.getAvatarUrl(contents[i].authorAccount),\n                commentAmount: _comment.getCommentAmountByArId(\n                    contents[i].arId\n                ),\n                retotAmount: _content.getRetotAmountByArId(contents[i].arId),\n                authorAccount: contents[i].authorAccount,\n                arId: contents[i].arId,\n                content: contents[i].content,\n                completed: contents[i].completed,\n                publishTime: contents[i].publishTime\n            });\n        }\n\n        return result;\n    }\n\n    function getExploreContents(\n        string calldata startArId,\n        uint256 amount,\n        bool reverse\n    ) public view returns (ResultContent[] memory) {\n        bytes32[] memory arIdKeys = _explore.getExploreArIdKeyArray(\n            startArId,\n            amount,\n            reverse\n        );\n\n        ReturnContent[] memory contents = _content.getContentsByArIdKeyArray(\n            arIdKeys\n        );\n\n        return getResultContentByReturn(contents);\n    }\n\n    function retot(string calldata arId) public {\n        bytes32 arIdKey = Encoder.getKey(arId);\n        require(_content.isExist(arIdKey), \"need a available arId\");\n        _content.increaseRetotAmount(arIdKey);\n        _user.submitContentArIdKey(msg.sender, arIdKey);\n    }\n}\n",
  "sourcePath": "C:\\project\\web3\\totee\\contracts\\ToteeV2Retot.sol",
  "compiler": {
    "name": "solc",
    "version": "0.8.13+commit.abaa5c0e.Emscripten.clang"
  },
  "schemaVersion": "3.4.6",
  "updatedAt": "2022-04-26T03:49:56.345Z",
  "devdoc": {
    "kind": "dev",
    "methods": {
      "owner()": {
        "details": "Returns the address of the current owner."
      },
      "renounceOwnership()": {
        "details": "Leaves the contract without owner. It will not be possible to call `onlyOwner` functions anymore. Can only be called by the current owner. NOTE: Renouncing ownership will leave the contract without an owner, thereby removing any functionality that is only available to the owner."
      },
      "transferOwnership(address)": {
        "details": "Transfers ownership of the contract to a new account (`newOwner`). Can only be called by the current owner."
      }
    },
    "version": 1
  },
  "userdoc": {
    "kind": "user",
    "methods": {},
    "version": 1
  }
}