{
  "contractName": "Totee",
  "abi": [
    {
      "anonymous": false,
      "inputs": [
        {
          "indexed": true,
          "internalType": "address",
          "name": "previousOwner",
          "type": "address"
        },
        {
          "indexed": true,
          "internalType": "address",
          "name": "newOwner",
          "type": "address"
        }
      ],
      "name": "OwnershipTransferred",
      "type": "event"
    },
    {
      "inputs": [],
      "name": "owner",
      "outputs": [
        {
          "internalType": "address",
          "name": "",
          "type": "address"
        }
      ],
      "stateMutability": "view",
      "type": "function"
    },
    {
      "inputs": [],
      "name": "renounceOwnership",
      "outputs": [],
      "stateMutability": "nonpayable",
      "type": "function"
    },
    {
      "inputs": [
        {
          "internalType": "address",
          "name": "newOwner",
          "type": "address"
        }
      ],
      "name": "transferOwnership",
      "outputs": [],
      "stateMutability": "nonpayable",
      "type": "function"
    },
    {
      "inputs": [
        {
          "internalType": "contract User",
          "name": "user",
          "type": "address"
        },
        {
          "internalType": "contract Content",
          "name": "content",
          "type": "address"
        },
        {
          "internalType": "contract Explore",
          "name": "explore",
          "type": "address"
        },
        {
          "internalType": "contract Comment",
          "name": "comment",
          "type": "address"
        }
      ],
      "name": "initialize",
      "outputs": [],
      "stateMutability": "nonpayable",
      "type": "function"
    },
    {
      "inputs": [
        {
          "internalType": "string",
          "name": "username",
          "type": "string"
        }
      ],
      "name": "setUsername",
      "outputs": [],
      "stateMutability": "nonpayable",
      "type": "function"
    },
    {
      "inputs": [
        {
          "internalType": "string",
          "name": "avatarUrl",
          "type": "string"
        }
      ],
      "name": "setAvatarUrl",
      "outputs": [],
      "stateMutability": "nonpayable",
      "type": "function"
    },
    {
      "inputs": [
        {
          "internalType": "string",
          "name": "bannerUrl",
          "type": "string"
        }
      ],
      "name": "setBannerUrl",
      "outputs": [],
      "stateMutability": "nonpayable",
      "type": "function"
    },
    {
      "inputs": [
        {
          "internalType": "address",
          "name": "account",
          "type": "address"
        }
      ],
      "name": "getUsername",
      "outputs": [
        {
          "internalType": "string",
          "name": "",
          "type": "string"
        }
      ],
      "stateMutability": "view",
      "type": "function"
    },
    {
      "inputs": [
        {
          "internalType": "address",
          "name": "account",
          "type": "address"
        }
      ],
      "name": "getAvatarUrl",
      "outputs": [
        {
          "internalType": "string",
          "name": "",
          "type": "string"
        }
      ],
      "stateMutability": "view",
      "type": "function"
    },
    {
      "inputs": [
        {
          "internalType": "address",
          "name": "account",
          "type": "address"
        }
      ],
      "name": "getBannerUrl",
      "outputs": [
        {
          "internalType": "string",
          "name": "",
          "type": "string"
        }
      ],
      "stateMutability": "view",
      "type": "function"
    },
    {
      "inputs": [
        {
          "internalType": "address",
          "name": "account",
          "type": "address"
        }
      ],
      "name": "getUserPageInfo",
      "outputs": [
        {
          "components": [
            {
              "internalType": "string",
              "name": "username",
              "type": "string"
            },
            {
              "internalType": "string",
              "name": "avatarUrl",
              "type": "string"
            },
            {
              "internalType": "string",
              "name": "bannerUrl",
              "type": "string"
            }
          ],
          "internalType": "struct UserPageInfo",
          "name": "",
          "type": "tuple"
        }
      ],
      "stateMutability": "view",
      "type": "function"
    },
    {
      "inputs": [
        {
          "internalType": "string",
          "name": "arId",
          "type": "string"
        },
        {
          "internalType": "string",
          "name": "content",
          "type": "string"
        },
        {
          "internalType": "bool",
          "name": "completed",
          "type": "bool"
        }
      ],
      "name": "publishContent",
      "outputs": [],
      "stateMutability": "nonpayable",
      "type": "function"
    },
    {
      "inputs": [
        {
          "internalType": "string",
          "name": "replyToArId",
          "type": "string"
        },
        {
          "internalType": "string",
          "name": "commentArId",
          "type": "string"
        },
        {
          "internalType": "string",
          "name": "content",
          "type": "string"
        },
        {
          "internalType": "bool",
          "name": "completed",
          "type": "bool"
        }
      ],
      "name": "publishComment",
      "outputs": [],
      "stateMutability": "nonpayable",
      "type": "function"
    },
    {
      "inputs": [
        {
          "internalType": "string",
          "name": "contentArId",
          "type": "string"
        },
        {
          "internalType": "string",
          "name": "startCommentId",
          "type": "string"
        },
        {
          "internalType": "uint256",
          "name": "amount",
          "type": "uint256"
        },
        {
          "internalType": "bool",
          "name": "reverse",
          "type": "bool"
        }
      ],
      "name": "getCommentsByArId",
      "outputs": [
        {
          "components": [
            {
              "internalType": "string",
              "name": "replyToArId",
              "type": "string"
            },
            {
              "internalType": "string",
              "name": "authorName",
              "type": "string"
            },
            {
              "internalType": "string",
              "name": "avatarUrl",
              "type": "string"
            },
            {
              "internalType": "address",
              "name": "authorAccount",
              "type": "address"
            },
            {
              "internalType": "uint256",
              "name": "commentAmount",
              "type": "uint256"
            },
            {
              "internalType": "string",
              "name": "arId",
              "type": "string"
            },
            {
              "internalType": "string",
              "name": "content",
              "type": "string"
            },
            {
              "internalType": "bool",
              "name": "completed",
              "type": "bool"
            },
            {
              "internalType": "uint256",
              "name": "publishTime",
              "type": "uint256"
            }
          ],
          "internalType": "struct ResultContent[]",
          "name": "",
          "type": "tuple[]"
        }
      ],
      "stateMutability": "view",
      "type": "function"
    },
    {
      "inputs": [
        {
          "internalType": "address",
          "name": "account",
          "type": "address"
        },
        {
          "internalType": "string",
          "name": "startArId",
          "type": "string"
        },
        {
          "internalType": "uint256",
          "name": "amount",
          "type": "uint256"
        },
        {
          "internalType": "bool",
          "name": "reverse",
          "type": "bool"
        }
      ],
      "name": "getUserContents",
      "outputs": [
        {
          "components": [
            {
              "internalType": "string",
              "name": "replyToArId",
              "type": "string"
            },
            {
              "internalType": "string",
              "name": "authorName",
              "type": "string"
            },
            {
              "internalType": "string",
              "name": "avatarUrl",
              "type": "string"
            },
            {
              "internalType": "address",
              "name": "authorAccount",
              "type": "address"
            },
            {
              "internalType": "uint256",
              "name": "commentAmount",
              "type": "uint256"
            },
            {
              "internalType": "string",
              "name": "arId",
              "type": "string"
            },
            {
              "internalType": "string",
              "name": "content",
              "type": "string"
            },
            {
              "internalType": "bool",
              "name": "completed",
              "type": "bool"
            },
            {
              "internalType": "uint256",
              "name": "publishTime",
              "type": "uint256"
            }
          ],
          "internalType": "struct ResultContent[]",
          "name": "",
          "type": "tuple[]"
        }
      ],
      "stateMutability": "view",
      "type": "function"
    },
    {
      "inputs": [
        {
          "internalType": "string",
          "name": "arId",
          "type": "string"
        }
      ],
      "name": "removeContent",
      "outputs": [],
      "stateMutability": "nonpayable",
      "type": "function"
    },
    {
      "inputs": [
        {
          "internalType": "string",
          "name": "startArId",
          "type": "string"
        },
        {
          "internalType": "uint256",
          "name": "amount",
          "type": "uint256"
        },
        {
          "internalType": "bool",
          "name": "reverse",
          "type": "bool"
        }
      ],
      "name": "getExploreContents",
      "outputs": [
        {
          "components": [
            {
              "internalType": "string",
              "name": "replyToArId",
              "type": "string"
            },
            {
              "internalType": "string",
              "name": "authorName",
              "type": "string"
            },
            {
              "internalType": "string",
              "name": "avatarUrl",
              "type": "string"
            },
            {
              "internalType": "address",
              "name": "authorAccount",
              "type": "address"
            },
            {
              "internalType": "uint256",
              "name": "commentAmount",
              "type": "uint256"
            },
            {
              "internalType": "string",
              "name": "arId",
              "type": "string"
            },
            {
              "internalType": "string",
              "name": "content",
              "type": "string"
            },
            {
              "internalType": "bool",
              "name": "completed",
              "type": "bool"
            },
            {
              "internalType": "uint256",
              "name": "publishTime",
              "type": "uint256"
            }
          ],
          "internalType": "struct ResultContent[]",
          "name": "",
          "type": "tuple[]"
        }
      ],
      "stateMutability": "view",
      "type": "function"
    }
  ],
  "bytecode": "0x608060405234801561001057600080fd5b50612fbd806100206000396000f3fe608060405234801561001057600080fd5b506004361061010b5760003560e01c80638da5cb5b116100a2578063d00f161211610071578063d00f1612146102c8578063d68d685a146102e4578063ed59313a14610314578063f2fde38b14610330578063f8c8765e1461034c5761010b565b80638da5cb5b1461021a578063b951e95e14610238578063ce43c03214610268578063cff80385146102985761010b565b80634db4795f116100de5780634db4795f146101bc5780636e7f6742146101d8578063715018a6146101f457806380b58dfe146101fe5761010b565b8063082ec2ab146101105780630e1ca6fb146101405780633d509a8414610170578063499eca891461018c575b600080fd5b61012a60048036038101906101259190611981565b610368565b6040516101379190611a47565b60405180910390f35b61015a60048036038101906101559190611981565b610412565b6040516101679190611b11565b60405180910390f35b61018a60048036038101906101859190611b98565b6104c2565b005b6101a660048036038101906101a19190611c53565b610557565b6040516101b39190611e97565b60405180910390f35b6101d660048036038101906101d19190611b98565b6106be565b005b6101f260048036038101906101ed9190611eb9565b610753565b005b6101fc6108ab565b005b61021860048036038101906102139190611f82565b610933565b005b610222610b03565b60405161022f9190612026565b60405180910390f35b610252600480360381019061024d9190612041565b610b2d565b60405161025f9190611e97565b60405180910390f35b610282600480360381019061027d9190611981565b610c9a565b60405161028f9190611a47565b60405180910390f35b6102b260048036038101906102ad91906120e8565b610d44565b6040516102bf9190611e97565b60405180910390f35b6102e260048036038101906102dd9190611b98565b610eae565b005b6102fe60048036038101906102f99190611981565b610f50565b60405161030b9190611a47565b60405180910390f35b61032e60048036038101906103299190611b98565b610ffa565b005b61034a60048036038101906103459190611981565b61108f565b005b61036660048036038101906103619190612268565b611186565b005b6060606560009054906101000a900473ffffffffffffffffffffffffffffffffffffffff1673ffffffffffffffffffffffffffffffffffffffff1663082ec2ab836040518263ffffffff1660e01b81526004016103c59190612026565b600060405180830381865afa1580156103e2573d6000803e3d6000fd5b505050506040513d6000823e3d601f19601f8201168201806040525081019061040b91906123f0565b9050919050565b61041a61188a565b606560009054906101000a900473ffffffffffffffffffffffffffffffffffffffff1673ffffffffffffffffffffffffffffffffffffffff16630e1ca6fb836040518263ffffffff1660e01b81526004016104759190612026565b600060405180830381865afa158015610492573d6000803e3d6000fd5b505050506040513d6000823e3d601f19601f820116820180604052508101906104bb91906124fb565b9050919050565b606560009054906101000a900473ffffffffffffffffffffffffffffffffffffffff1673ffffffffffffffffffffffffffffffffffffffff1663610f0b263384846040518463ffffffff1660e01b815260040161052193929190612580565b600060405180830381600087803b15801561053b57600080fd5b505af115801561054f573d6000803e3d6000fd5b505050505050565b60606000606760009054906101000a900473ffffffffffffffffffffffffffffffffffffffff1673ffffffffffffffffffffffffffffffffffffffff166313a15cff878787876040518563ffffffff1660e01b81526004016105bc94939291906125d0565b600060405180830381865afa1580156105d9573d6000803e3d6000fd5b505050506040513d6000823e3d601f19601f820116820180604052508101906106029190612709565b90506000606660009054906101000a900473ffffffffffffffffffffffffffffffffffffffff1673ffffffffffffffffffffffffffffffffffffffff1663f2175bd1836040518263ffffffff1660e01b81526004016106619190612810565b600060405180830381865afa15801561067e573d6000803e3d6000fd5b505050506040513d6000823e3d601f19601f820116820180604052508101906106a79190612a46565b90506106b281611372565b92505050949350505050565b606560009054906101000a900473ffffffffffffffffffffffffffffffffffffffff1673ffffffffffffffffffffffffffffffffffffffff1663e1018c8b3384846040518463ffffffff1660e01b815260040161071d93929190612580565b600060405180830381600087803b15801561073757600080fd5b505af115801561074b573d6000803e3d6000fd5b505050505050565b6000606660009054906101000a900473ffffffffffffffffffffffffffffffffffffffff1673ffffffffffffffffffffffffffffffffffffffff1663797af37d338a8a8a8a8a8a8a6040518963ffffffff1660e01b81526004016107be989796959493929190612a8f565b6020604051808303816000875af11580156107dd573d6000803e3d6000fd5b505050506040513d601f19601f820116820180604052508101906108019190612afd565b9050600061080f8989611755565b9050606860009054906101000a900473ffffffffffffffffffffffffffffffffffffffff1673ffffffffffffffffffffffffffffffffffffffff16630d40220982846040518363ffffffff1660e01b815260040161086e929190612b39565b600060405180830381600087803b15801561088857600080fd5b505af115801561089c573d6000803e3d6000fd5b50505050505050505050505050565b6108b3611788565b73ffffffffffffffffffffffffffffffffffffffff166108d1610b03565b73ffffffffffffffffffffffffffffffffffffffff1614610927576040517f08c379a000000000000000000000000000000000000000000000000000000000815260040161091e90612bae565b60405180910390fd5b6109316000611790565b565b6000606660009054906101000a900473ffffffffffffffffffffffffffffffffffffffff1673ffffffffffffffffffffffffffffffffffffffff1663797af37d3388888888886040518763ffffffff1660e01b815260040161099a96959493929190612bf4565b6020604051808303816000875af11580156109b9573d6000803e3d6000fd5b505050506040513d601f19601f820116820180604052508101906109dd9190612afd565b9050606560009054906101000a900473ffffffffffffffffffffffffffffffffffffffff1673ffffffffffffffffffffffffffffffffffffffff1663f4b95e3433836040518363ffffffff1660e01b8152600401610a3c929190612c5e565b600060405180830381600087803b158015610a5657600080fd5b505af1158015610a6a573d6000803e3d6000fd5b50505050606760009054906101000a900473ffffffffffffffffffffffffffffffffffffffff1673ffffffffffffffffffffffffffffffffffffffff1663224f1a27826040518263ffffffff1660e01b8152600401610ac99190612c87565b600060405180830381600087803b158015610ae357600080fd5b505af1158015610af7573d6000803e3d6000fd5b50505050505050505050565b6000603360009054906101000a900473ffffffffffffffffffffffffffffffffffffffff16905090565b60606000606860009054906101000a900473ffffffffffffffffffffffffffffffffffffffff1673ffffffffffffffffffffffffffffffffffffffff1663806029968989898989896040518763ffffffff1660e01b8152600401610b9696959493929190612ca2565b600060405180830381865afa158015610bb3573d6000803e3d6000fd5b505050506040513d6000823e3d601f19601f82011682018060405250810190610bdc9190612709565b90506000606660009054906101000a900473ffffffffffffffffffffffffffffffffffffffff1673ffffffffffffffffffffffffffffffffffffffff1663f2175bd1836040518263ffffffff1660e01b8152600401610c3b9190612810565b600060405180830381865afa158015610c58573d6000803e3d6000fd5b505050506040513d6000823e3d601f19601f82011682018060405250810190610c819190612a46565b9050610c8c81611372565b925050509695505050505050565b6060606560009054906101000a900473ffffffffffffffffffffffffffffffffffffffff1673ffffffffffffffffffffffffffffffffffffffff1663ce43c032836040518263ffffffff1660e01b8152600401610cf79190612026565b600060405180830381865afa158015610d14573d6000803e3d6000fd5b505050506040513d6000823e3d601f19601f82011682018060405250810190610d3d91906123f0565b9050919050565b60606000606560009054906101000a900473ffffffffffffffffffffffffffffffffffffffff1673ffffffffffffffffffffffffffffffffffffffff1663f8a75f4388888888886040518663ffffffff1660e01b8152600401610dab959493929190612cf9565b600060405180830381865afa158015610dc8573d6000803e3d6000fd5b505050506040513d6000823e3d601f19601f82011682018060405250810190610df19190612709565b90506000606660009054906101000a900473ffffffffffffffffffffffffffffffffffffffff1673ffffffffffffffffffffffffffffffffffffffff1663f2175bd1836040518263ffffffff1660e01b8152600401610e509190612810565b600060405180830381865afa158015610e6d573d6000803e3d6000fd5b505050506040513d6000823e3d601f19601f82011682018060405250810190610e969190612a46565b9050610ea181611372565b9250505095945050505050565b6000610eba8383611755565b9050606560009054906101000a900473ffffffffffffffffffffffffffffffffffffffff1673ffffffffffffffffffffffffffffffffffffffff1663d23654e033836040518363ffffffff1660e01b8152600401610f19929190612c5e565b600060405180830381600087803b158015610f3357600080fd5b505af1158015610f47573d6000803e3d6000fd5b50505050505050565b6060606560009054906101000a900473ffffffffffffffffffffffffffffffffffffffff1673ffffffffffffffffffffffffffffffffffffffff1663d68d685a836040518263ffffffff1660e01b8152600401610fad9190612026565b600060405180830381865afa158015610fca573d6000803e3d6000fd5b505050506040513d6000823e3d601f19601f82011682018060405250810190610ff391906123f0565b9050919050565b606560009054906101000a900473ffffffffffffffffffffffffffffffffffffffff1673ffffffffffffffffffffffffffffffffffffffff1663e20454523384846040518463ffffffff1660e01b815260040161105993929190612580565b600060405180830381600087803b15801561107357600080fd5b505af1158015611087573d6000803e3d6000fd5b505050505050565b611097611788565b73ffffffffffffffffffffffffffffffffffffffff166110b5610b03565b73ffffffffffffffffffffffffffffffffffffffff161461110b576040517f08c379a000000000000000000000000000000000000000000000000000000000815260040161110290612bae565b60405180910390fd5b600073ffffffffffffffffffffffffffffffffffffffff168173ffffffffffffffffffffffffffffffffffffffff160361117a576040517f08c379a000000000000000000000000000000000000000000000000000000000815260040161117190612db9565b60405180910390fd5b61118381611790565b50565b600060019054906101000a900460ff166111ae5760008054906101000a900460ff16156111b7565b6111b6611856565b5b6111f6576040517f08c379a00000000000000000000000000000000000000000000000000000000081526004016111ed90612e4b565b60405180910390fd5b60008060019054906101000a900460ff161590508015611246576001600060016101000a81548160ff02191690831515021790555060016000806101000a81548160ff0219169083151502179055505b84606560006101000a81548173ffffffffffffffffffffffffffffffffffffffff021916908373ffffffffffffffffffffffffffffffffffffffff16021790555083606660006101000a81548173ffffffffffffffffffffffffffffffffffffffff021916908373ffffffffffffffffffffffffffffffffffffffff16021790555082606760006101000a81548173ffffffffffffffffffffffffffffffffffffffff021916908373ffffffffffffffffffffffffffffffffffffffff16021790555081606860006101000a81548173ffffffffffffffffffffffffffffffffffffffff021916908373ffffffffffffffffffffffffffffffffffffffff160217905550801561136b5760008060016101000a81548160ff0219169083151502179055505b5050505050565b60606000825167ffffffffffffffff811115611391576113906122d4565b5b6040519080825280602002602001820160405280156113ca57816020015b6113b76118ab565b8152602001906001900390816113af5790505b50905060005b835181101561174b576040518061012001604052808583815181106113f8576113f7612e6b565b5b6020026020010151600001518152602001606560009054906101000a900473ffffffffffffffffffffffffffffffffffffffff1673ffffffffffffffffffffffffffffffffffffffff1663ce43c03287858151811061145a57611459612e6b565b5b6020026020010151604001516040518263ffffffff1660e01b81526004016114829190612026565b600060405180830381865afa15801561149f573d6000803e3d6000fd5b505050506040513d6000823e3d601f19601f820116820180604052508101906114c891906123f0565b8152602001606560009054906101000a900473ffffffffffffffffffffffffffffffffffffffff1673ffffffffffffffffffffffffffffffffffffffff1663d68d685a87858151811061151e5761151d612e6b565b5b6020026020010151604001516040518263ffffffff1660e01b81526004016115469190612026565b600060405180830381865afa158015611563573d6000803e3d6000fd5b505050506040513d6000823e3d601f19601f8201168201806040525081019061158c91906123f0565b81526020018583815181106115a4576115a3612e6b565b5b60200260200101516040015173ffffffffffffffffffffffffffffffffffffffff168152602001606860009054906101000a900473ffffffffffffffffffffffffffffffffffffffff1673ffffffffffffffffffffffffffffffffffffffff16639236489187858151811061161c5761161b612e6b565b5b6020026020010151602001516040518263ffffffff1660e01b81526004016116449190611a47565b602060405180830381865afa158015611661573d6000803e3d6000fd5b505050506040513d601f19601f820116820180604052508101906116859190612e9a565b815260200185838151811061169d5761169c612e6b565b5b60200260200101516020015181526020018583815181106116c1576116c0612e6b565b5b60200260200101516060015181526020018583815181106116e5576116e4612e6b565b5b6020026020010151608001511515815260200185838151811061170b5761170a612e6b565b5b602002602001015160a0015181525082828151811061172d5761172c612e6b565b5b6020026020010181905250808061174390612ef6565b9150506113d0565b5080915050919050565b6000828260405160200161176a929190612f6e565b60405160208183030381529060405280519060200120905092915050565b600033905090565b6000603360009054906101000a900473ffffffffffffffffffffffffffffffffffffffff16905081603360006101000a81548173ffffffffffffffffffffffffffffffffffffffff021916908373ffffffffffffffffffffffffffffffffffffffff1602179055508173ffffffffffffffffffffffffffffffffffffffff168173ffffffffffffffffffffffffffffffffffffffff167f8be0079c531659141344cd1fd0a4f28419497f9722a3daafe3b4186f6b6457e060405160405180910390a35050565b600061186130611867565b15905090565b6000808273ffffffffffffffffffffffffffffffffffffffff163b119050919050565b60405180606001604052806060815260200160608152602001606081525090565b604051806101200160405280606081526020016060815260200160608152602001600073ffffffffffffffffffffffffffffffffffffffff168152602001600081526020016060815260200160608152602001600015158152602001600081525090565b6000604051905090565b600080fd5b600080fd5b600073ffffffffffffffffffffffffffffffffffffffff82169050919050565b600061194e82611923565b9050919050565b61195e81611943565b811461196957600080fd5b50565b60008135905061197b81611955565b92915050565b60006020828403121561199757611996611919565b5b60006119a58482850161196c565b91505092915050565b600081519050919050565b600082825260208201905092915050565b60005b838110156119e85780820151818401526020810190506119cd565b838111156119f7576000848401525b50505050565b6000601f19601f8301169050919050565b6000611a19826119ae565b611a2381856119b9565b9350611a338185602086016119ca565b611a3c816119fd565b840191505092915050565b60006020820190508181036000830152611a618184611a0e565b905092915050565b600082825260208201905092915050565b6000611a85826119ae565b611a8f8185611a69565b9350611a9f8185602086016119ca565b611aa8816119fd565b840191505092915050565b60006060830160008301518482036000860152611ad08282611a7a565b91505060208301518482036020860152611aea8282611a7a565b91505060408301518482036040860152611b048282611a7a565b9150508091505092915050565b60006020820190508181036000830152611b2b8184611ab3565b905092915050565b600080fd5b600080fd5b600080fd5b60008083601f840112611b5857611b57611b33565b5b8235905067ffffffffffffffff811115611b7557611b74611b38565b5b602083019150836001820283011115611b9157611b90611b3d565b5b9250929050565b60008060208385031215611baf57611bae611919565b5b600083013567ffffffffffffffff811115611bcd57611bcc61191e565b5b611bd985828601611b42565b92509250509250929050565b6000819050919050565b611bf881611be5565b8114611c0357600080fd5b50565b600081359050611c1581611bef565b92915050565b60008115159050919050565b611c3081611c1b565b8114611c3b57600080fd5b50565b600081359050611c4d81611c27565b92915050565b60008060008060608587031215611c6d57611c6c611919565b5b600085013567ffffffffffffffff811115611c8b57611c8a61191e565b5b611c9787828801611b42565b94509450506020611caa87828801611c06565b9250506040611cbb87828801611c3e565b91505092959194509250565b600081519050919050565b600082825260208201905092915050565b6000819050602082019050919050565b611cfc81611943565b82525050565b611d0b81611be5565b82525050565b611d1a81611c1b565b82525050565b6000610120830160008301518482036000860152611d3e8282611a7a565b91505060208301518482036020860152611d588282611a7a565b91505060408301518482036040860152611d728282611a7a565b9150506060830151611d876060860182611cf3565b506080830151611d9a6080860182611d02565b5060a083015184820360a0860152611db28282611a7a565b91505060c083015184820360c0860152611dcc8282611a7a565b91505060e0830151611de160e0860182611d11565b50610100830151611df6610100860182611d02565b508091505092915050565b6000611e0d8383611d20565b905092915050565b6000602082019050919050565b6000611e2d82611cc7565b611e378185611cd2565b935083602082028501611e4985611ce3565b8060005b85811015611e855784840389528151611e668582611e01565b9450611e7183611e15565b925060208a01995050600181019050611e4d565b50829750879550505050505092915050565b60006020820190508181036000830152611eb18184611e22565b905092915050565b60008060008060008060006080888a031215611ed857611ed7611919565b5b600088013567ffffffffffffffff811115611ef657611ef561191e565b5b611f028a828b01611b42565b9750975050602088013567ffffffffffffffff811115611f2557611f2461191e565b5b611f318a828b01611b42565b9550955050604088013567ffffffffffffffff811115611f5457611f5361191e565b5b611f608a828b01611b42565b93509350506060611f738a828b01611c3e565b91505092959891949750929550565b600080600080600060608688031215611f9e57611f9d611919565b5b600086013567ffffffffffffffff811115611fbc57611fbb61191e565b5b611fc888828901611b42565b9550955050602086013567ffffffffffffffff811115611feb57611fea61191e565b5b611ff788828901611b42565b9350935050604061200a88828901611c3e565b9150509295509295909350565b61202081611943565b82525050565b600060208201905061203b6000830184612017565b92915050565b6000806000806000806080878903121561205e5761205d611919565b5b600087013567ffffffffffffffff81111561207c5761207b61191e565b5b61208889828a01611b42565b9650965050602087013567ffffffffffffffff8111156120ab576120aa61191e565b5b6120b789828a01611b42565b945094505060406120ca89828a01611c06565b92505060606120db89828a01611c3e565b9150509295509295509295565b60008060008060006080868803121561210457612103611919565b5b60006121128882890161196c565b955050602086013567ffffffffffffffff8111156121335761213261191e565b5b61213f88828901611b42565b9450945050604061215288828901611c06565b925050606061216388828901611c3e565b9150509295509295909350565b600061217b82611943565b9050919050565b61218b81612170565b811461219657600080fd5b50565b6000813590506121a881612182565b92915050565b60006121b982611943565b9050919050565b6121c9816121ae565b81146121d457600080fd5b50565b6000813590506121e6816121c0565b92915050565b60006121f782611943565b9050919050565b612207816121ec565b811461221257600080fd5b50565b600081359050612224816121fe565b92915050565b600061223582611943565b9050919050565b6122458161222a565b811461225057600080fd5b50565b6000813590506122628161223c565b92915050565b6000806000806080858703121561228257612281611919565b5b600061229087828801612199565b94505060206122a1878288016121d7565b93505060406122b287828801612215565b92505060606122c387828801612253565b91505092959194509250565b600080fd5b7f4e487b7100000000000000000000000000000000000000000000000000000000600052604160045260246000fd5b61230c826119fd565b810181811067ffffffffffffffff8211171561232b5761232a6122d4565b5b80604052505050565b600061233e61190f565b905061234a8282612303565b919050565b600067ffffffffffffffff82111561236a576123696122d4565b5b612373826119fd565b9050602081019050919050565b600061239361238e8461234f565b612334565b9050828152602081018484840111156123af576123ae6122cf565b5b6123ba8482856119ca565b509392505050565b600082601f8301126123d7576123d6611b33565b5b81516123e7848260208601612380565b91505092915050565b60006020828403121561240657612405611919565b5b600082015167ffffffffffffffff8111156124245761242361191e565b5b612430848285016123c2565b91505092915050565b600080fd5b600080fd5b60006060828403121561245957612458612439565b5b6124636060612334565b9050600082015167ffffffffffffffff8111156124835761248261243e565b5b61248f848285016123c2565b600083015250602082015167ffffffffffffffff8111156124b3576124b261243e565b5b6124bf848285016123c2565b602083015250604082015167ffffffffffffffff8111156124e3576124e261243e565b5b6124ef848285016123c2565b60408301525092915050565b60006020828403121561251157612510611919565b5b600082015167ffffffffffffffff81111561252f5761252e61191e565b5b61253b84828501612443565b91505092915050565b82818337600083830152505050565b600061255f83856119b9565b935061256c838584612544565b612575836119fd565b840190509392505050565b60006040820190506125956000830186612017565b81810360208301526125a8818486612553565b9050949350505050565b6125bb81611be5565b82525050565b6125ca81611c1b565b82525050565b600060608201905081810360008301526125eb818688612553565b90506125fa60208301856125b2565b61260760408301846125c1565b95945050505050565b600067ffffffffffffffff82111561262b5761262a6122d4565b5b602082029050602081019050919050565b6000819050919050565b61264f8161263c565b811461265a57600080fd5b50565b60008151905061266c81612646565b92915050565b600061268561268084612610565b612334565b905080838252602082019050602084028301858111156126a8576126a7611b3d565b5b835b818110156126d157806126bd888261265d565b8452602084019350506020810190506126aa565b5050509392505050565b600082601f8301126126f0576126ef611b33565b5b8151612700848260208601612672565b91505092915050565b60006020828403121561271f5761271e611919565b5b600082015167ffffffffffffffff81111561273d5761273c61191e565b5b612749848285016126db565b91505092915050565b600081519050919050565b600082825260208201905092915050565b6000819050602082019050919050565b6127878161263c565b82525050565b6000612799838361277e565b60208301905092915050565b6000602082019050919050565b60006127bd82612752565b6127c7818561275d565b93506127d28361276e565b8060005b838110156128035781516127ea888261278d565b97506127f5836127a5565b9250506001810190506127d6565b5085935050505092915050565b6000602082019050818103600083015261282a81846127b2565b905092915050565b600067ffffffffffffffff82111561284d5761284c6122d4565b5b602082029050602081019050919050565b60008151905061286d81611955565b92915050565b60008151905061288281611c27565b92915050565b60008151905061289781611bef565b92915050565b600060c082840312156128b3576128b2612439565b5b6128bd60c0612334565b9050600082015167ffffffffffffffff8111156128dd576128dc61243e565b5b6128e9848285016123c2565b600083015250602082015167ffffffffffffffff81111561290d5761290c61243e565b5b612919848285016123c2565b602083015250604061292d8482850161285e565b604083015250606082015167ffffffffffffffff8111156129515761295061243e565b5b61295d848285016123c2565b606083015250608061297184828501612873565b60808301525060a061298584828501612888565b60a08301525092915050565b60006129a461299f84612832565b612334565b905080838252602082019050602084028301858111156129c7576129c6611b3d565b5b835b81811015612a0e57805167ffffffffffffffff8111156129ec576129eb611b33565b5b8086016129f9898261289d565b855260208501945050506020810190506129c9565b5050509392505050565b600082601f830112612a2d57612a2c611b33565b5b8151612a3d848260208601612991565b91505092915050565b600060208284031215612a5c57612a5b611919565b5b600082015167ffffffffffffffff811115612a7a57612a7961191e565b5b612a8684828501612a18565b91505092915050565b600060a082019050612aa4600083018b612017565b8181036020830152612ab781898b612553565b90508181036040830152612acc818789612553565b90508181036060830152612ae1818587612553565b9050612af060808301846125c1565b9998505050505050505050565b600060208284031215612b1357612b12611919565b5b6000612b218482850161265d565b91505092915050565b612b338161263c565b82525050565b6000604082019050612b4e6000830185612b2a565b612b5b6020830184612b2a565b9392505050565b7f4f776e61626c653a2063616c6c6572206973206e6f7420746865206f776e6572600082015250565b6000612b986020836119b9565b9150612ba382612b62565b602082019050919050565b60006020820190508181036000830152612bc781612b8b565b9050919050565b50565b6000612bde6000836119b9565b9150612be982612bce565b600082019050919050565b600060a082019050612c096000830189612017565b8181036020830152612c1a81612bd1565b90508181036040830152612c2f818789612553565b90508181036060830152612c44818587612553565b9050612c5360808301846125c1565b979650505050505050565b6000604082019050612c736000830185612017565b612c806020830184612b2a565b9392505050565b6000602082019050612c9c6000830184612b2a565b92915050565b60006080820190508181036000830152612cbd81888a612553565b90508181036020830152612cd2818688612553565b9050612ce160408301856125b2565b612cee60608301846125c1565b979650505050505050565b6000608082019050612d0e6000830188612017565b8181036020830152612d21818688612553565b9050612d3060408301856125b2565b612d3d60608301846125c1565b9695505050505050565b7f4f776e61626c653a206e6577206f776e657220697320746865207a65726f206160008201527f6464726573730000000000000000000000000000000000000000000000000000602082015250565b6000612da36026836119b9565b9150612dae82612d47565b604082019050919050565b60006020820190508181036000830152612dd281612d96565b9050919050565b7f496e697469616c697a61626c653a20636f6e747261637420697320616c72656160008201527f647920696e697469616c697a6564000000000000000000000000000000000000602082015250565b6000612e35602e836119b9565b9150612e4082612dd9565b604082019050919050565b60006020820190508181036000830152612e6481612e28565b9050919050565b7f4e487b7100000000000000000000000000000000000000000000000000000000600052603260045260246000fd5b600060208284031215612eb057612eaf611919565b5b6000612ebe84828501612888565b91505092915050565b7f4e487b7100000000000000000000000000000000000000000000000000000000600052601160045260246000fd5b6000612f0182611be5565b91507fffffffffffffffffffffffffffffffffffffffffffffffffffffffffffffffff8203612f3357612f32612ec7565b5b600182019050919050565b600081905092915050565b6000612f558385612f3e565b9350612f62838584612544565b82840190509392505050565b6000612f7b828486612f49565b9150819050939250505056fea26469706673582212201169629b587ddfdc78d686d96cd32746586c60e6b4397e04667000ba3c92804564736f6c634300080d0033",
  "immutableReferences": {},
  "source": "// SPDX-License-Identifier: MIT\npragma solidity ^0.8.10;\n\nimport \"@openzeppelin/contracts-upgradeable/proxy/utils/Initializable.sol\";\nimport \"@openzeppelin/contracts-upgradeable/access/OwnableUpgradeable.sol\";\n\nimport \"./storages/EternalStorage.sol\";\nimport \"./modules/User.sol\";\nimport \"./modules/Content.sol\";\nimport \"./modules/Explore.sol\";\nimport \"./modules/Comment.sol\";\n\nstruct ResultContent {\n    string replyToArId;\n    string authorName;\n    string avatarUrl;\n    address authorAccount;\n    uint256 commentAmount;\n    string arId;\n    string content;\n    bool completed;\n    uint256 publishTime;\n}\n\ncontract Totee is Initializable, OwnableUpgradeable {\n    User private _user;\n    Content private _content;\n    Explore private _explore;\n    Comment private _comment;\n\n    function initialize(\n        User user,\n        Content content,\n        Explore explore,\n        Comment comment\n    ) public initializer {\n        _user = user;\n        _content = content;\n        _explore = explore;\n        _comment = comment;\n    }\n\n    function setUsername(string calldata username) public {\n        _user.setUsername(msg.sender, username);\n    }\n\n    function setAvatarUrl(string calldata avatarUrl) public {\n        _user.setAvatarUrl(msg.sender, avatarUrl);\n    }\n\n    function setBannerUrl(string calldata bannerUrl) public {\n        _user.setBannerUrl(msg.sender, bannerUrl);\n    }\n\n    function getUsername(address account) public view returns (string memory) {\n        return _user.getUsername(account);\n    }\n\n    function getAvatarUrl(address account) public view returns (string memory) {\n        return _user.getAvatarUrl(account);\n    }\n\n    function getBannerUrl(address account) public view returns (string memory) {\n        return _user.getBannerUrl(account);\n    }\n\n    function getUserPageInfo(address account)\n        public\n        view\n        returns (UserPageInfo memory)\n    {\n        return _user.getUserPageInfo(account);\n    }\n\n    function publishContent(\n        string calldata arId,\n        string calldata content,\n        bool completed\n    ) external {\n        bytes32 arIdKey = _content.publishContent(\n            msg.sender,\n            \"\",\n            arId,\n            content,\n            completed\n        );\n        _user.submitContentArIdKey(msg.sender, arIdKey);\n        _explore.submitContentArIdKey(arIdKey);\n    }\n\n    function publishComment(\n        string calldata replyToArId,\n        string calldata commentArId,\n        string calldata content,\n        bool completed\n    ) external {\n        bytes32 commentArIdKey = _content.publishContent(\n            msg.sender,\n            replyToArId,\n            commentArId,\n            content,\n            completed\n        );\n        bytes32 replyToArIdKey = Encoder.getKey(replyToArId);\n        _comment.submitCommentId(replyToArIdKey, commentArIdKey);\n    }\n\n    function getCommentsByArId(\n        string calldata contentArId,\n        string calldata startCommentId,\n        uint256 amount,\n        bool reverse\n    ) public view returns (ResultContent[] memory) {\n        bytes32[] memory commentIds = _comment.getCommentIdArray(\n            contentArId,\n            startCommentId,\n            amount,\n            reverse\n        );\n        ReturnContent[] memory comments = _content.getContentsByArIdKeyArray(\n            commentIds\n        );\n\n        return getResultContentByReturn(comments);\n\n        // ResultContent[] memory result = new ResultContent[](comments.length);\n\n        // for (uint256 i = 0; i < comments.length; i++) {\n        //     result[i] = ResultContent({\n        //         authorName: _user.getUsername(comments[i].authorAccount),\n        //         avatarUrl: _user.getAvatarUrl(comments[i].authorAccount),\n        //         commentAmount: _comment.getCommentAmountByArIdKey(\n        //             commentIds[i]\n        //         ),\n        //         replyToArId: comments[i].replyToArId,\n        //         authorAccount: comments[i].authorAccount,\n        //         arId: comments[i].arId,\n        //         content: comments[i].content,\n        //         completed: comments[i].completed,\n        //         publishTime: comments[i].publishTime\n        //     });\n        // }\n\n        // return result;\n    }\n\n    function getUserContents(\n        address account,\n        string calldata startArId,\n        uint256 amount,\n        bool reverse\n    ) public view returns (ResultContent[] memory) {\n        bytes32[] memory arIdKeys = _user.getContentArIdKeyArray(\n            account,\n            startArId,\n            amount,\n            reverse\n        );\n\n        ReturnContent[] memory contents = _content.getContentsByArIdKeyArray(\n            arIdKeys\n        );\n\n        return getResultContentByReturn(contents);\n    }\n\n    function removeContent(string calldata arId) public {\n        bytes32 arIdKey = Encoder.getKey(arId);\n        _user.removeContentByArIdKey(msg.sender, arIdKey);\n    }\n\n    function getResultContentByReturn(ReturnContent[] memory contents)\n        internal\n        view\n        returns (ResultContent[] memory)\n    {\n        ResultContent[] memory result = new ResultContent[](contents.length);\n\n        for (uint256 i = 0; i < contents.length; i++) {\n            result[i] = ResultContent({\n                replyToArId: contents[i].replyToArId,\n                authorName: _user.getUsername(contents[i].authorAccount),\n                avatarUrl: _user.getAvatarUrl(contents[i].authorAccount),\n                commentAmount: _comment.getCommentAmountByArId(\n                    contents[i].arId\n                ),\n                authorAccount: contents[i].authorAccount,\n                arId: contents[i].arId,\n                content: contents[i].content,\n                completed: contents[i].completed,\n                publishTime: contents[i].publishTime\n            });\n        }\n\n        return result;\n    }\n\n    function getExploreContents(\n        string calldata startArId,\n        uint256 amount,\n        bool reverse\n    ) public view returns (ResultContent[] memory) {\n        bytes32[] memory arIdKeys = _explore.getExploreArIdKeyArray(\n            startArId,\n            amount,\n            reverse\n        );\n\n        ReturnContent[] memory contents = _content.getContentsByArIdKeyArray(\n            arIdKeys\n        );\n\n        return getResultContentByReturn(contents);\n\n        // ResultContent[] memory result = new ResultContent[](contents.length);\n\n        // for (uint256 i = 0; i < contents.length; i++) {\n        //     result[i] = ResultContent({\n        //         authorName: _user.getUsername(contents[i].authorAccount),\n        //         avatarUrl: _user.getAvatarUrl(contents[i].authorAccount),\n        //         commentAmount: _comment.getCommentAmountByArIdKey(arIdKeys[i]),\n        //         authorAccount: contents[i].authorAccount,\n        //         arId: contents[i].arId,\n        //         content: contents[i].content,\n        //         completed: contents[i].completed,\n        //         publishTime: contents[i].publishTime\n        //     });\n        // }\n\n        // return result;\n    }\n\n    // function test(string calldata from, string calldata to) external {\n    //     _explore.test(Encoder.stringToKey(from), Encoder.stringToKey(to));\n    // }\n}\n",
  "sourcePath": "C:\\project\\web3\\totee\\contracts\\Totee.sol",
  "compiler": {
    "name": "solc",
    "version": "0.8.13+commit.abaa5c0e.Emscripten.clang"
  },
  "schemaVersion": "3.4.6",
  "updatedAt": "2022-04-26T03:49:56.315Z",
  "devdoc": {
    "kind": "dev",
    "methods": {
      "owner()": {
        "details": "Returns the address of the current owner."
      },
      "renounceOwnership()": {
        "details": "Leaves the contract without owner. It will not be possible to call `onlyOwner` functions anymore. Can only be called by the current owner. NOTE: Renouncing ownership will leave the contract without an owner, thereby removing any functionality that is only available to the owner."
      },
      "transferOwnership(address)": {
        "details": "Transfers ownership of the contract to a new account (`newOwner`). Can only be called by the current owner."
      }
    },
    "version": 1
  },
  "userdoc": {
    "kind": "user",
    "methods": {},
    "version": 1
  }
}