{
  "contractName": "User",
  "abi": [
    {
      "anonymous": false,
      "inputs": [
        {
          "indexed": true,
          "internalType": "address",
          "name": "previousOwner",
          "type": "address"
        },
        {
          "indexed": true,
          "internalType": "address",
          "name": "newOwner",
          "type": "address"
        }
      ],
      "name": "OwnershipTransferred",
      "type": "event"
    },
    {
      "inputs": [],
      "name": "owner",
      "outputs": [
        {
          "internalType": "address",
          "name": "",
          "type": "address"
        }
      ],
      "stateMutability": "view",
      "type": "function"
    },
    {
      "inputs": [],
      "name": "renounceOwnership",
      "outputs": [],
      "stateMutability": "nonpayable",
      "type": "function"
    },
    {
      "inputs": [
        {
          "internalType": "address",
          "name": "newOwner",
          "type": "address"
        }
      ],
      "name": "transferOwnership",
      "outputs": [],
      "stateMutability": "nonpayable",
      "type": "function"
    },
    {
      "inputs": [],
      "name": "initialize",
      "outputs": [],
      "stateMutability": "nonpayable",
      "type": "function"
    },
    {
      "inputs": [
        {
          "internalType": "address",
          "name": "account",
          "type": "address"
        }
      ],
      "name": "getUserPageInfo",
      "outputs": [
        {
          "components": [
            {
              "internalType": "string",
              "name": "username",
              "type": "string"
            },
            {
              "internalType": "string",
              "name": "avatarUrl",
              "type": "string"
            },
            {
              "internalType": "string",
              "name": "bannerUrl",
              "type": "string"
            }
          ],
          "internalType": "struct UserPageInfo",
          "name": "",
          "type": "tuple"
        }
      ],
      "stateMutability": "view",
      "type": "function"
    },
    {
      "inputs": [
        {
          "internalType": "address",
          "name": "account",
          "type": "address"
        },
        {
          "internalType": "string",
          "name": "username",
          "type": "string"
        }
      ],
      "name": "setUsername",
      "outputs": [],
      "stateMutability": "nonpayable",
      "type": "function"
    },
    {
      "inputs": [
        {
          "internalType": "address",
          "name": "account",
          "type": "address"
        }
      ],
      "name": "getUsername",
      "outputs": [
        {
          "internalType": "string",
          "name": "",
          "type": "string"
        }
      ],
      "stateMutability": "view",
      "type": "function"
    },
    {
      "inputs": [
        {
          "internalType": "address",
          "name": "account",
          "type": "address"
        },
        {
          "internalType": "string",
          "name": "avatarUrl",
          "type": "string"
        }
      ],
      "name": "setAvatarUrl",
      "outputs": [],
      "stateMutability": "nonpayable",
      "type": "function"
    },
    {
      "inputs": [
        {
          "internalType": "address",
          "name": "account",
          "type": "address"
        }
      ],
      "name": "getAvatarUrl",
      "outputs": [
        {
          "internalType": "string",
          "name": "",
          "type": "string"
        }
      ],
      "stateMutability": "view",
      "type": "function"
    },
    {
      "inputs": [
        {
          "internalType": "address",
          "name": "account",
          "type": "address"
        },
        {
          "internalType": "string",
          "name": "bannerUrl",
          "type": "string"
        }
      ],
      "name": "setBannerUrl",
      "outputs": [],
      "stateMutability": "nonpayable",
      "type": "function"
    },
    {
      "inputs": [
        {
          "internalType": "address",
          "name": "account",
          "type": "address"
        }
      ],
      "name": "getBannerUrl",
      "outputs": [
        {
          "internalType": "string",
          "name": "",
          "type": "string"
        }
      ],
      "stateMutability": "view",
      "type": "function"
    },
    {
      "inputs": [
        {
          "internalType": "address",
          "name": "account",
          "type": "address"
        },
        {
          "internalType": "bytes32",
          "name": "arIdKey",
          "type": "bytes32"
        }
      ],
      "name": "submitContentArIdKey",
      "outputs": [],
      "stateMutability": "nonpayable",
      "type": "function"
    },
    {
      "inputs": [
        {
          "internalType": "address",
          "name": "account",
          "type": "address"
        },
        {
          "internalType": "string",
          "name": "startArId",
          "type": "string"
        },
        {
          "internalType": "uint256",
          "name": "amount",
          "type": "uint256"
        },
        {
          "internalType": "bool",
          "name": "reverse",
          "type": "bool"
        }
      ],
      "name": "getContentArIdKeyArray",
      "outputs": [
        {
          "internalType": "bytes32[]",
          "name": "",
          "type": "bytes32[]"
        }
      ],
      "stateMutability": "view",
      "type": "function"
    },
    {
      "inputs": [
        {
          "internalType": "address",
          "name": "account",
          "type": "address"
        },
        {
          "internalType": "bytes32",
          "name": "key",
          "type": "bytes32"
        }
      ],
      "name": "removeContentByArIdKey",
      "outputs": [],
      "stateMutability": "nonpayable",
      "type": "function"
    }
  ],
  "bytecode": "0x608060405234801561001057600080fd5b50612577806100206000396000f3fe608060405234801561001057600080fd5b50600436106100ea5760003560e01c8063d23654e01161008c578063e204545211610066578063e204545214610235578063f2fde38b14610251578063f4b95e341461026d578063f8a75f4314610289576100ea565b8063d23654e0146101cd578063d68d685a146101e9578063e1018c8b14610219576100ea565b8063715018a6116100c8578063715018a61461016b5780638129fc1c146101755780638da5cb5b1461017f578063ce43c0321461019d576100ea565b8063082ec2ab146100ef5780630e1ca6fb1461011f578063610f0b261461014f575b600080fd5b61010960048036038101906101049190611910565b6102b9565b60405161011691906119d6565b60405180910390f35b61013960048036038101906101349190611910565b6102fa565b6040516101469190611aa0565b60405180910390f35b61016960048036038101906101649190611b27565b61033c565b005b61017361043a565b005b61017d6104c2565b005b6101876105ae565b6040516101949190611b96565b60405180910390f35b6101b760048036038101906101b29190611910565b6105d8565b6040516101c491906119d6565b60405180910390f35b6101e760048036038101906101e29190611be7565b610619565b005b61020360048036038101906101fe9190611910565b6106ab565b60405161021091906119d6565b60405180910390f35b610233600480360381019061022e9190611b27565b6106ec565b005b61024f600480360381019061024a9190611b27565b6107ea565b005b61026b60048036038101906102669190611910565b6108e8565b005b61028760048036038101906102829190611be7565b6109df565b005b6102a3600480360381019061029e9190611c95565b610a71565b6040516102b09190611ddb565b60405180910390f35b606060006102e77f42414e4e45525f55524c3a00000000000000000000000000000000000000000084610a9b565b90506102f281610ace565b915050919050565b6103026116c2565b6040518060600160405280610316846105d8565b8152602001610324846106ab565b8152602001610332846102b9565b8152509050919050565b610344610b73565b73ffffffffffffffffffffffffffffffffffffffff166103626105ae565b73ffffffffffffffffffffffffffffffffffffffff16146103b8576040517f08c379a00000000000000000000000000000000000000000000000000000000081526004016103af90611e49565b60405180910390fd5b60006103e47f4156415441525f55524c3a00000000000000000000000000000000000000000085610a9b565b90506104348184848080601f016020809104026020016040519081016040528093929190818152602001838380828437600081840152601f19601f82011690508083019250505050505050610b7b565b50505050565b610442610b73565b73ffffffffffffffffffffffffffffffffffffffff166104606105ae565b73ffffffffffffffffffffffffffffffffffffffff16146104b6576040517f08c379a00000000000000000000000000000000000000000000000000000000081526004016104ad90611e49565b60405180910390fd5b6104c06000610ba7565b565b600060019054906101000a900460ff166104ea5760008054906101000a900460ff16156104f3565b6104f2610c6d565b5b610532576040517f08c379a000000000000000000000000000000000000000000000000000000000815260040161052990611edb565b60405180910390fd5b60008060019054906101000a900460ff161590508015610582576001600060016101000a81548160ff02191690831515021790555060016000806101000a81548160ff0219169083151502179055505b61058a610c7e565b80156105ab5760008060016101000a81548160ff0219169083151502179055505b50565b6000604060009054906101000a900473ffffffffffffffffffffffffffffffffffffffff16905090565b606060006106067f555345524e414d453a000000000000000000000000000000000000000000000084610a9b565b905061061181610ace565b915050919050565b610621610b73565b73ffffffffffffffffffffffffffffffffffffffff1661063f6105ae565b73ffffffffffffffffffffffffffffffffffffffff1614610695576040517f08c379a000000000000000000000000000000000000000000000000000000000815260040161068c90611e49565b60405180910390fd5b6106a76106a183610cd7565b82610d07565b5050565b606060006106d97f4156415441525f55524c3a00000000000000000000000000000000000000000084610a9b565b90506106e481610ace565b915050919050565b6106f4610b73565b73ffffffffffffffffffffffffffffffffffffffff166107126105ae565b73ffffffffffffffffffffffffffffffffffffffff1614610768576040517f08c379a000000000000000000000000000000000000000000000000000000000815260040161075f90611e49565b60405180910390fd5b60006107947f42414e4e45525f55524c3a00000000000000000000000000000000000000000085610a9b565b90506107e48184848080601f016020809104026020016040519081016040528093929190818152602001838380828437600081840152601f19601f82011690508083019250505050505050610b7b565b50505050565b6107f2610b73565b73ffffffffffffffffffffffffffffffffffffffff166108106105ae565b73ffffffffffffffffffffffffffffffffffffffff1614610866576040517f08c379a000000000000000000000000000000000000000000000000000000000815260040161085d90611e49565b60405180910390fd5b60006108927f555345524e414d453a000000000000000000000000000000000000000000000085610a9b565b90506108e28184848080601f016020809104026020016040519081016040528093929190818152602001838380828437600081840152601f19601f82011690508083019250505050505050610b7b565b50505050565b6108f0610b73565b73ffffffffffffffffffffffffffffffffffffffff1661090e6105ae565b73ffffffffffffffffffffffffffffffffffffffff1614610964576040517f08c379a000000000000000000000000000000000000000000000000000000000815260040161095b90611e49565b60405180910390fd5b600073ffffffffffffffffffffffffffffffffffffffff168173ffffffffffffffffffffffffffffffffffffffff16036109d3576040517f08c379a00000000000000000000000000000000000000000000000000000000081526004016109ca90611f6d565b60405180910390fd5b6109dc81610ba7565b50565b6109e7610b73565b73ffffffffffffffffffffffffffffffffffffffff16610a056105ae565b73ffffffffffffffffffffffffffffffffffffffff1614610a5b576040517f08c379a0000000000000000000000000000000000000000000000000000000008152600401610a5290611e49565b60405180910390fd5b610a6d610a6783610cd7565b82610ecb565b5050565b6060610a90610a7f87610cd7565b610a898787610eef565b8585610f1f565b905095945050505050565b60008282604051602001610ab0929190611ff6565b60405160208183030381529060405280519060200120905092915050565b6060600260008381526020019081526020016000208054610aee90612051565b80601f0160208091040260200160405190810160405280929190818152602001828054610b1a90612051565b8015610b675780601f10610b3c57610100808354040283529160200191610b67565b820191906000526020600020905b815481529060010190602001808311610b4a57829003601f168201915b50505050509050919050565b600033905090565b80600260008481526020019081526020016000209080519060200190610ba29291906116e3565b505050565b6000604060009054906101000a900473ffffffffffffffffffffffffffffffffffffffff16905081604060006101000a81548173ffffffffffffffffffffffffffffffffffffffff021916908373ffffffffffffffffffffffffffffffffffffffff1602179055508173ffffffffffffffffffffffffffffffffffffffff168173ffffffffffffffffffffffffffffffffffffffff167f8be0079c531659141344cd1fd0a4f28419497f9722a3daafe3b4186f6b6457e060405160405180910390a35050565b6000610c783061112f565b15905090565b600060019054906101000a900460ff16610ccd576040517f08c379a0000000000000000000000000000000000000000000000000000000008152600401610cc4906120f4565b60405180910390fd5b610cd5611152565b565b600081604051602001610cea9190612114565b604051602081830303815290604052805190602001209050919050565b6000610d12836111b3565b90506000610d2c610d27836000015185611207565b61123a565b90506000610d46610d41846020015186611207565b61123a565b90506000610d578460a0015161123a565b90506000610d68856080015161123a565b9050858203610dc757858103610db357600760008660800151815260200190815260200160002060009055600760008660a00151815260200190815260200160002060009055610dc2565b610dc18560a0015184611257565b5b610e11565b858103610de157610ddc856080015185611257565b610e10565b610df8610df2866020015186611207565b84611257565b610e0f610e09866000015185611207565b85611257565b5b5b60046000610e23876040015189611207565b81526020019081526020016000206000610e3d9190611769565b60046000610e4f876000015189611207565b81526020019081526020016000206000610e699190611769565b60046000610e7b876020015189611207565b81526020019081526020016000206000610e959190611769565b600160008660c0015181526020019081526020016000206000815480929190610ebd9061215e565b919050555050505050505050565b6000604051806020016040528060008152509050610eea838383611273565b505050565b60008060008484905003610f08576000801b9050610f15565b610f1284846113a8565b90505b8091505092915050565b6060600060016000610f517f434841494e5f414d4f554e543a0000000000000000000000000000000000000089611207565b81526020019081526020016000205403610fb657600067ffffffffffffffff811115610f8057610f7f612187565b5b604051908082528060200260200182016040528015610fae5781602001602082028036833780820191505090505b509050611127565b6000610fc1866111b3565b90506000610fd28260a0015161123a565b90506000610fe3836080015161123a565b905060008667ffffffffffffffff81111561100157611000612187565b5b60405190808252806020026020018201604052801561102f5781602001602082028036833780820191505090505b50905060008060001b890361107a57861561104c57829850611050565b8398505b8882600081518110611065576110646121b6565b5b6020026020010181815250506001905061107f565b600090505b5b878110156111075786156110b35783890315611107576110ac6110a786600001518b611207565b61123a565b98506110d4565b82890315611107576110d16110cc86602001518b611207565b61123a565b98505b888282815181106110e8576110e76121b6565b5b60200260200101818152505080806110ff906121e5565b915050611080565b60008189611115919061222d565b90508083510383528296505050505050505b949350505050565b6000808273ffffffffffffffffffffffffffffffffffffffff163b119050919050565b600060019054906101000a900460ff166111a1576040517f08c379a0000000000000000000000000000000000000000000000000000000008152600401611198906120f4565b60405180910390fd5b6111b16111ac610b73565b610ba7565b565b6111bb6117a9565b6111ed6111e87f434841494e5f53414c545f4d41524b3a0000000000000000000000000000000084611207565b6113db565b806020019051810190611200919061237b565b9050919050565b6000828260405160200161121c9291906123a8565b60405160208183030381529060405280519060200120905092915050565b600060076000838152602001908152602001600020549050919050565b8060076000848152602001908152602001600020819055505050565b600061127e84611480565b90508261128e826080015161123a565b141580156112b357506000801b6112b16112ac836000015186611207565b61123a565b145b6112f2576040517f08c379a00000000000000000000000000000000000000000000000000000000081526004016112e990612420565b60405180910390fd5b6000611301826080015161123a565b90506000801b81036113205761131b8260a0015185611257565b61134f565b611337611331836020015183611207565b85611257565b61134e611348836000015186611207565b82611257565b5b61135d826080015185611257565b61137461136e836040015186611207565b84611696565b600160008360c001518152602001908152602001600020600081548092919061139c906121e5565b91905055505050505050565b600082826040516020016113bd92919061247f565b60405160208183030381529060405280519060200120905092915050565b60606004600083815260200190815260200160002080546113fb90612051565b80601f016020809104026020016040519081016040528092919081815260200182805461142790612051565b80156114745780601f1061144957610100808354040283529160200191611474565b820191906000526020600020905b81548152906001019060200180831161145757829003601f168201915b50505050509050919050565b6114886117a9565b60006114bc6114b77f434841494e5f53414c545f4d41524b3a0000000000000000000000000000000085611207565b6113db565b905060008151036116795760006040518060e001604052806114fe7f434841494e5f505245563a00000000000000000000000000000000000000000087611207565b815260200161152d7f434841494e5f4e4558543a00000000000000000000000000000000000000000087611207565b815260200161155c7f434841494e5f444154413a00000000000000000000000000000000000000000087611207565b815260200161158b7f434841494e5f53434f52453a000000000000000000000000000000000000000087611207565b81526020016115ba7f434841494e5f4c4153543a00000000000000000000000000000000000000000087611207565b81526020016115e97f434841494e5f46495253543a000000000000000000000000000000000000000087611207565b81526020016116187f434841494e5f414d4f554e543a0000000000000000000000000000000000000087611207565b815250905061166f61164a7f434841494e5f53414c545f4d41524b3a0000000000000000000000000000000086611207565b8260405160200161165b9190612526565b604051602081830303815290604052611696565b8092505050611691565b8080602001905181019061168d919061237b565b9150505b919050565b806004600084815260200190815260200160002090805190602001906116bd9291906117fb565b505050565b60405180606001604052806060815260200160608152602001606081525090565b8280546116ef90612051565b90600052602060002090601f0160209004810192826117115760008555611758565b82601f1061172a57805160ff1916838001178555611758565b82800160010185558215611758579182015b8281111561175757825182559160200191906001019061173c565b5b5090506117659190611881565b5090565b50805461177590612051565b6000825580601f1061178757506117a6565b601f0160209004906000526020600020908101906117a59190611881565b5b50565b6040518060e00160405280600080191681526020016000801916815260200160008019168152602001600080191681526020016000801916815260200160008019168152602001600080191681525090565b82805461180790612051565b90600052602060002090601f0160209004810192826118295760008555611870565b82601f1061184257805160ff1916838001178555611870565b82800160010185558215611870579182015b8281111561186f578251825591602001919060010190611854565b5b50905061187d9190611881565b5090565b5b8082111561189a576000816000905550600101611882565b5090565b6000604051905090565b600080fd5b600080fd5b600073ffffffffffffffffffffffffffffffffffffffff82169050919050565b60006118dd826118b2565b9050919050565b6118ed816118d2565b81146118f857600080fd5b50565b60008135905061190a816118e4565b92915050565b600060208284031215611926576119256118a8565b5b6000611934848285016118fb565b91505092915050565b600081519050919050565b600082825260208201905092915050565b60005b8381101561197757808201518184015260208101905061195c565b83811115611986576000848401525b50505050565b6000601f19601f8301169050919050565b60006119a88261193d565b6119b28185611948565b93506119c2818560208601611959565b6119cb8161198c565b840191505092915050565b600060208201905081810360008301526119f0818461199d565b905092915050565b600082825260208201905092915050565b6000611a148261193d565b611a1e81856119f8565b9350611a2e818560208601611959565b611a378161198c565b840191505092915050565b60006060830160008301518482036000860152611a5f8282611a09565b91505060208301518482036020860152611a798282611a09565b91505060408301518482036040860152611a938282611a09565b9150508091505092915050565b60006020820190508181036000830152611aba8184611a42565b905092915050565b600080fd5b600080fd5b600080fd5b60008083601f840112611ae757611ae6611ac2565b5b8235905067ffffffffffffffff811115611b0457611b03611ac7565b5b602083019150836001820283011115611b2057611b1f611acc565b5b9250929050565b600080600060408486031215611b4057611b3f6118a8565b5b6000611b4e868287016118fb565b935050602084013567ffffffffffffffff811115611b6f57611b6e6118ad565b5b611b7b86828701611ad1565b92509250509250925092565b611b90816118d2565b82525050565b6000602082019050611bab6000830184611b87565b92915050565b6000819050919050565b611bc481611bb1565b8114611bcf57600080fd5b50565b600081359050611be181611bbb565b92915050565b60008060408385031215611bfe57611bfd6118a8565b5b6000611c0c858286016118fb565b9250506020611c1d85828601611bd2565b9150509250929050565b6000819050919050565b611c3a81611c27565b8114611c4557600080fd5b50565b600081359050611c5781611c31565b92915050565b60008115159050919050565b611c7281611c5d565b8114611c7d57600080fd5b50565b600081359050611c8f81611c69565b92915050565b600080600080600060808688031215611cb157611cb06118a8565b5b6000611cbf888289016118fb565b955050602086013567ffffffffffffffff811115611ce057611cdf6118ad565b5b611cec88828901611ad1565b94509450506040611cff88828901611c48565b9250506060611d1088828901611c80565b9150509295509295909350565b600081519050919050565b600082825260208201905092915050565b6000819050602082019050919050565b611d5281611bb1565b82525050565b6000611d648383611d49565b60208301905092915050565b6000602082019050919050565b6000611d8882611d1d565b611d928185611d28565b9350611d9d83611d39565b8060005b83811015611dce578151611db58882611d58565b9750611dc083611d70565b925050600181019050611da1565b5085935050505092915050565b60006020820190508181036000830152611df58184611d7d565b905092915050565b7f4f776e61626c653a2063616c6c6572206973206e6f7420746865206f776e6572600082015250565b6000611e33602083611948565b9150611e3e82611dfd565b602082019050919050565b60006020820190508181036000830152611e6281611e26565b9050919050565b7f496e697469616c697a61626c653a20636f6e747261637420697320616c72656160008201527f647920696e697469616c697a6564000000000000000000000000000000000000602082015250565b6000611ec5602e83611948565b9150611ed082611e69565b604082019050919050565b60006020820190508181036000830152611ef481611eb8565b9050919050565b7f4f776e61626c653a206e6577206f776e657220697320746865207a65726f206160008201527f6464726573730000000000000000000000000000000000000000000000000000602082015250565b6000611f57602683611948565b9150611f6282611efb565b604082019050919050565b60006020820190508181036000830152611f8681611f4a565b9050919050565b6000819050919050565b611fa8611fa382611bb1565b611f8d565b82525050565b60008160601b9050919050565b6000611fc682611fae565b9050919050565b6000611fd882611fbb565b9050919050565b611ff0611feb826118d2565b611fcd565b82525050565b60006120028285611f97565b6020820191506120128284611fdf565b6014820191508190509392505050565b7f4e487b7100000000000000000000000000000000000000000000000000000000600052602260045260246000fd5b6000600282049050600182168061206957607f821691505b60208210810361207c5761207b612022565b5b50919050565b7f496e697469616c697a61626c653a20636f6e7472616374206973206e6f74206960008201527f6e697469616c697a696e67000000000000000000000000000000000000000000602082015250565b60006120de602b83611948565b91506120e982612082565b604082019050919050565b6000602082019050818103600083015261210d816120d1565b9050919050565b60006121208284611fdf565b60148201915081905092915050565b7f4e487b7100000000000000000000000000000000000000000000000000000000600052601160045260246000fd5b600061216982611c27565b91506000820361217c5761217b61212f565b5b600182039050919050565b7f4e487b7100000000000000000000000000000000000000000000000000000000600052604160045260246000fd5b7f4e487b7100000000000000000000000000000000000000000000000000000000600052603260045260246000fd5b60006121f082611c27565b91507fffffffffffffffffffffffffffffffffffffffffffffffffffffffffffffffff82036122225761222161212f565b5b600182019050919050565b600061223882611c27565b915061224383611c27565b9250828210156122565761225561212f565b5b828203905092915050565b600080fd5b61226f8261198c565b810181811067ffffffffffffffff8211171561228e5761228d612187565b5b80604052505050565b60006122a161189e565b90506122ad8282612266565b919050565b6000815190506122c181611bbb565b92915050565b600060e082840312156122dd576122dc612261565b5b6122e760e0612297565b905060006122f7848285016122b2565b600083015250602061230b848285016122b2565b602083015250604061231f848285016122b2565b6040830152506060612333848285016122b2565b6060830152506080612347848285016122b2565b60808301525060a061235b848285016122b2565b60a08301525060c061236f848285016122b2565b60c08301525092915050565b600060e08284031215612391576123906118a8565b5b600061239f848285016122c7565b91505092915050565b60006123b48285611f97565b6020820191506123c48284611f97565b6020820191508190509392505050565b7f6f6e6c7920616c6c6f77207375626d6974206f6e636500000000000000000000600082015250565b600061240a601683611948565b9150612415826123d4565b602082019050919050565b60006020820190508181036000830152612439816123fd565b9050919050565b600081905092915050565b82818337600083830152505050565b60006124668385612440565b935061247383858461244b565b82840190509392505050565b600061248c82848661245a565b91508190509392505050565b60e0820160008201516124ae6000850182611d49565b5060208201516124c16020850182611d49565b5060408201516124d46040850182611d49565b5060608201516124e76060850182611d49565b5060808201516124fa6080850182611d49565b5060a082015161250d60a0850182611d49565b5060c082015161252060c0850182611d49565b50505050565b600060e08201905061253b6000830184612498565b9291505056fea26469706673582212208d34e6e4e7825a23b17650512be594568e2127c8245f2d4c060907b0cc8eb98664736f6c634300080d0033",
  "immutableReferences": {},
  "source": "// SPDX-License-Identifier: MIT\r\npragma solidity ^0.8.10;\r\n\r\nimport \"@openzeppelin/contracts-upgradeable/proxy/utils/Initializable.sol\";\r\nimport \"@openzeppelin/contracts-upgradeable/access/OwnableUpgradeable.sol\";\r\n\r\nimport \"../storages/EternalStorage.sol\";\r\nimport \"../storages/ChainStorage.sol\";\r\nimport \"../libraries/Encoder.sol\";\r\nimport \"../libraries/Math.sol\";\r\nimport \"../libraries/Pagination.sol\";\r\n\r\nstruct UserPageInfo {\r\n    string username;\r\n    string avatarUrl;\r\n    string bannerUrl;\r\n}\r\n\r\ncontract User is\r\n    Initializable,\r\n    EternalStorage,\r\n    ChainStorage,\r\n    OwnableUpgradeable\r\n{\r\n    bytes32 private constant USERNAME = \"USERNAME:\";\r\n    bytes32 private constant CONTENTS = \"CONTENTS:\";\r\n    bytes32 private constant AVATAR_URL = \"AVATAR_URL:\";\r\n    bytes32 private constant BANNER_URL = \"BANNER_URL:\";\r\n\r\n    function initialize() public initializer {\r\n        __Ownable_init();\r\n    }\r\n\r\n    function getUserPageInfo(address account)\r\n        public\r\n        view\r\n        returns (UserPageInfo memory)\r\n    {\r\n        return\r\n            UserPageInfo({\r\n                username: getUsername(account),\r\n                avatarUrl: getAvatarUrl(account),\r\n                bannerUrl: getBannerUrl(account)\r\n            });\r\n    }\r\n\r\n    function setUsername(address account, string calldata username)\r\n        public\r\n        onlyOwner\r\n    {\r\n        bytes32 key = Encoder.getKey(USERNAME, account);\r\n        set(key, username);\r\n    }\r\n\r\n    function getUsername(address account) public view returns (string memory) {\r\n        bytes32 key = Encoder.getKey(USERNAME, account);\r\n        return getStringValue(key);\r\n    }\r\n\r\n    function setAvatarUrl(address account, string calldata avatarUrl)\r\n        public\r\n        onlyOwner\r\n    {\r\n        bytes32 key = Encoder.getKey(AVATAR_URL, account);\r\n        set(key, avatarUrl);\r\n    }\r\n\r\n    function getAvatarUrl(address account) public view returns (string memory) {\r\n        bytes32 key = Encoder.getKey(AVATAR_URL, account);\r\n        return getStringValue(key);\r\n    }\r\n\r\n    function setBannerUrl(address account, string calldata bannerUrl)\r\n        public\r\n        onlyOwner\r\n    {\r\n        bytes32 key = Encoder.getKey(BANNER_URL, account);\r\n        set(key, bannerUrl);\r\n    }\r\n\r\n    function getBannerUrl(address account) public view returns (string memory) {\r\n        bytes32 key = Encoder.getKey(BANNER_URL, account);\r\n        return getStringValue(key);\r\n    }\r\n\r\n    function submitContentArIdKey(address account, bytes32 arIdKey)\r\n        external\r\n        onlyOwner\r\n    {\r\n        submitChainDataWithSalt(Encoder.getKey(account), arIdKey);\r\n    }\r\n\r\n    function getContentArIdKeyArray(\r\n        address account,\r\n        string calldata startArId,\r\n        uint256 amount,\r\n        bool reverse\r\n    ) external view returns (bytes32[] memory) {\r\n        return\r\n            getChainKeyArrayWithSalt(\r\n                Encoder.getKey(account),\r\n                Encoder.stringToKey(startArId),\r\n                amount,\r\n                reverse\r\n            );\r\n    }\r\n\r\n    function removeContentByArIdKey(address account, bytes32 key)\r\n        external\r\n        onlyOwner\r\n    {\r\n        removeChainData(Encoder.getKey(account), key);\r\n    }\r\n}\r\n",
  "sourcePath": "C:\\project\\web3\\totee\\contracts\\modules\\User.sol",
  "compiler": {
    "name": "solc",
    "version": "0.8.13+commit.abaa5c0e.Emscripten.clang"
  },
  "schemaVersion": "3.4.6",
  "updatedAt": "2022-04-26T03:49:56.473Z",
  "devdoc": {
    "kind": "dev",
    "methods": {
      "owner()": {
        "details": "Returns the address of the current owner."
      },
      "renounceOwnership()": {
        "details": "Leaves the contract without owner. It will not be possible to call `onlyOwner` functions anymore. Can only be called by the current owner. NOTE: Renouncing ownership will leave the contract without an owner, thereby removing any functionality that is only available to the owner."
      },
      "transferOwnership(address)": {
        "details": "Transfers ownership of the contract to a new account (`newOwner`). Can only be called by the current owner."
      }
    },
    "version": 1
  },
  "userdoc": {
    "kind": "user",
    "methods": {},
    "version": 1
  }
}